{
  "contractName": "CrowdsaleFiets",
  "abi": [
    {
      "constant": true,
      "inputs": [],
      "name": "endTime",
      "outputs": [
        {
          "name": "",
          "type": "uint256"
        }
      ],
      "payable": false,
      "type": "function"
    },
    {
      "constant": false,
      "inputs": [],
      "name": "close",
      "outputs": [],
      "payable": false,
      "type": "function"
    },
    {
      "constant": false,
      "inputs": [],
      "name": "dispose",
      "outputs": [],
      "payable": false,
      "type": "function"
    },
    {
      "constant": true,
      "inputs": [],
      "name": "wallet",
      "outputs": [
        {
          "name": "",
          "type": "address"
        }
      ],
      "payable": false,
      "type": "function"
    },
    {
      "constant": true,
      "inputs": [],
      "name": "startTime",
      "outputs": [
        {
          "name": "",
          "type": "uint256"
        }
      ],
      "payable": false,
      "type": "function"
    },
    {
      "constant": true,
      "inputs": [],
      "name": "fundingGoal",
      "outputs": [
        {
          "name": "",
          "type": "uint256"
        }
      ],
      "payable": false,
      "type": "function"
    },
    {
      "constant": true,
      "inputs": [],
      "name": "amountRaised",
      "outputs": [
        {
          "name": "",
          "type": "uint256"
        }
      ],
      "payable": false,
      "type": "function"
    },
    {
      "constant": true,
      "inputs": [],
      "name": "goalReached",
      "outputs": [
        {
          "name": "",
          "type": "bool"
        }
      ],
      "payable": false,
      "type": "function"
    },
    {
      "constant": true,
      "inputs": [],
      "name": "owner",
      "outputs": [
        {
          "name": "",
          "type": "address"
        }
      ],
      "payable": false,
      "type": "function"
    },
    {
      "constant": false,
      "inputs": [],
      "name": "claimRefund",
      "outputs": [],
      "payable": false,
      "type": "function"
    },
    {
      "constant": true,
      "inputs": [],
      "name": "isClosed",
      "outputs": [
        {
          "name": "",
          "type": "bool"
        }
      ],
      "payable": false,
      "type": "function"
    },
    {
      "constant": false,
      "inputs": [
        {
          "name": "beneficiary",
          "type": "address"
        }
      ],
      "name": "buyTokens",
      "outputs": [],
      "payable": true,
      "type": "function"
    },
    {
      "constant": true,
      "inputs": [],
      "name": "hasEnded",
      "outputs": [
        {
          "name": "",
          "type": "bool"
        }
      ],
      "payable": false,
      "type": "function"
    },
    {
      "constant": false,
      "inputs": [
        {
          "name": "_newOwner",
          "type": "address"
        }
      ],
      "name": "transferOwnership",
      "outputs": [
        {
          "name": "success",
          "type": "bool"
        }
      ],
      "payable": false,
      "type": "function"
    },
    {
      "constant": true,
      "inputs": [],
      "name": "crowdsaleToken",
      "outputs": [
        {
          "name": "",
          "type": "address"
        }
      ],
      "payable": false,
      "type": "function"
    },
    {
      "constant": true,
      "inputs": [],
      "name": "vault",
      "outputs": [
        {
          "name": "",
          "type": "address"
        }
      ],
      "payable": false,
      "type": "function"
    },
    {
      "inputs": [
        {
          "name": "_token",
          "type": "address"
        }
      ],
      "payable": false,
      "type": "constructor"
    },
    {
      "payable": true,
      "type": "fallback"
    },
    {
      "anonymous": false,
      "inputs": [
        {
          "indexed": true,
          "name": "_owner",
          "type": "address"
        },
        {
          "indexed": false,
          "name": "_value",
          "type": "uint256"
        }
      ],
      "name": "Dispose",
      "type": "event"
    },
    {
      "anonymous": false,
      "inputs": [
        {
          "indexed": true,
          "name": "_owner",
          "type": "address"
        }
      ],
      "name": "CrowdsaleClosed",
      "type": "event"
    },
    {
      "anonymous": false,
      "inputs": [
        {
          "indexed": true,
          "name": "_owner",
          "type": "address"
        }
      ],
      "name": "OwnershipChange",
      "type": "event"
    },
    {
      "anonymous": false,
      "inputs": [
        {
          "indexed": true,
          "name": "purchaser",
          "type": "address"
        },
        {
          "indexed": true,
          "name": "beneficiary",
          "type": "address"
        },
        {
          "indexed": false,
          "name": "value",
          "type": "uint256"
        },
        {
          "indexed": false,
          "name": "amount",
          "type": "uint256"
        }
      ],
      "name": "TokenPurchase",
      "type": "event"
    }
  ],
  "bytecode": "0x60606040526000600560146101000a81548160ff0219169083151502179055504260085562015180420160095533600a60006101000a81548173ffffffffffffffffffffffffffffffffffffffff021916908373ffffffffffffffffffffffffffffffffffffffff1602179055506015600b5534156200007e57600080fd5b604051602080620026af83398101604052808051906020019091905050600b54600854600954600a60009054906101000a900473ffffffffffffffffffffffffffffffffffffffff1684428410151515620000d857600080fd5b838310151515620000e857600080fd5b60008273ffffffffffffffffffffffffffffffffffffffff16141515156200010f57600080fd5b6200012e816200028364010000000002620015cc176401000000009004565b836001819055508260028190555081600360006101000a81548173ffffffffffffffffffffffffffffffffffffffff021916908373ffffffffffffffffffffffffffffffffffffffff1602179055505050505033600560006101000a81548173ffffffffffffffffffffffffffffffffffffffff021916908373ffffffffffffffffffffffffffffffffffffffff160217905550600081111515620001d257600080fd5b33620001dd620003aa565b808273ffffffffffffffffffffffffffffffffffffffff1673ffffffffffffffffffffffffffffffffffffffff168152602001915050604051809103906000f08015156200022a57600080fd5b600760006101000a81548173ffffffffffffffffffffffffffffffffffffffff021916908373ffffffffffffffffffffffffffffffffffffffff160217905550670de0b6b3a764000081026006819055505050620003bb565b806000806101000a81548173ffffffffffffffffffffffffffffffffffffffff021916908373ffffffffffffffffffffffffffffffffffffffff1602179055503373ffffffffffffffffffffffffffffffffffffffff166000809054906101000a900473ffffffffffffffffffffffffffffffffffffffff1673ffffffffffffffffffffffffffffffffffffffff16638da5cb5b6000604051602001526040518163ffffffff167c0100000000000000000000000000000000000000000000000000000000028152600401602060405180830381600087803b15156200036857600080fd5b6102c65a03f115156200037a57600080fd5b5050506040518051905073ffffffffffffffffffffffffffffffffffffffff16141515620003a757600080fd5b50565b604051610bc88062001ae783390190565b61171c80620003cb6000396000f3006060604052600436106100e6576000357c0100000000000000000000000000000000000000000000000000000000900463ffffffff1680633197cbb6146100f157806343d726d61461011a5780634c86659e1461012f578063521eb2731461014457806378e97925146101995780637a3a0e84146101c25780637b3e5e7b146101eb5780637d3d6522146102145780638da5cb5b14610241578063b5545a3c14610296578063c2b6b58c146102ab578063ec8ac4d8146102d8578063ecb70fb714610306578063f2fde38b14610333578063fa65dfac14610384578063fbfa77cf146103d9575b6100ef3361042e565b005b34156100fc57600080fd5b610104610474565b6040518082815260200191505060405180910390f35b341561012557600080fd5b61012d61047a565b005b341561013a57600080fd5b61014261058f565b005b341561014f57600080fd5b610157610a74565b604051808273ffffffffffffffffffffffffffffffffffffffff1673ffffffffffffffffffffffffffffffffffffffff16815260200191505060405180910390f35b34156101a457600080fd5b6101ac610a9a565b6040518082815260200191505060405180910390f35b34156101cd57600080fd5b6101d5610aa0565b6040518082815260200191505060405180910390f35b34156101f657600080fd5b6101fe610aa6565b6040518082815260200191505060405180910390f35b341561021f57600080fd5b610227610aac565b604051808215151515815260200191505060405180910390f35b341561024c57600080fd5b610254610abb565b604051808273ffffffffffffffffffffffffffffffffffffffff1673ffffffffffffffffffffffffffffffffffffffff16815260200191505060405180910390f35b34156102a157600080fd5b6102a9610ae1565b005b34156102b657600080fd5b6102be610be2565b604051808215151515815260200191505060405180910390f35b610304600480803573ffffffffffffffffffffffffffffffffffffffff1690602001909190505061042e565b005b341561031157600080fd5b610319610bf5565b604051808215151515815260200191505060405180910390f35b341561033e57600080fd5b61036a600480803573ffffffffffffffffffffffffffffffffffffffff16906020019091905050610c01565b604051808215151515815260200191505060405180910390f35b341561038f57600080fd5b610397610d0e565b604051808273ffffffffffffffffffffffffffffffffffffffff1673ffffffffffffffffffffffffffffffffffffffff16815260200191505060405180910390f35b34156103e457600080fd5b6103ec610d33565b604051808273ffffffffffffffffffffffffffffffffffffffff1673ffffffffffffffffffffffffffffffffffffffff16815260200191505060405180910390f35b60008173ffffffffffffffffffffffffffffffffffffffff161415151561045457600080fd5b61045c610d59565b151561046757600080fd5b6104718134610d8c565b50565b60025481565b600560009054906101000a900473ffffffffffffffffffffffffffffffffffffffff1673ffffffffffffffffffffffffffffffffffffffff163373ffffffffffffffffffffffffffffffffffffffff161415156104d657600080fd5b600560149054906101000a900460ff161515156104f257600080fd5b6104fa610bf5565b151561050557600080fd5b61050d6110b5565b6001600560146101000a81548160ff021916908315150217905550600560009054906101000a900473ffffffffffffffffffffffffffffffffffffffff1673ffffffffffffffffffffffffffffffffffffffff167f2a6b157a3657e33e5e8d0edfd23395833d4241ec1834db5523867157650dc6d260405160405180910390a2565b600560009054906101000a900473ffffffffffffffffffffffffffffffffffffffff1673ffffffffffffffffffffffffffffffffffffffff163373ffffffffffffffffffffffffffffffffffffffff161415156105eb57600080fd5b60008060009054906101000a900473ffffffffffffffffffffffffffffffffffffffff1673ffffffffffffffffffffffffffffffffffffffff16638da5cb5b6000604051602001526040518163ffffffff167c0100000000000000000000000000000000000000000000000000000000028152600401602060405180830381600087803b151561067a57600080fd5b6102c65a03f1151561068b57600080fd5b5050506040518051905073ffffffffffffffffffffffffffffffffffffffff161415801561078b57503073ffffffffffffffffffffffffffffffffffffffff166000809054906101000a900473ffffffffffffffffffffffffffffffffffffffff1673ffffffffffffffffffffffffffffffffffffffff16638da5cb5b6000604051602001526040518163ffffffff167c0100000000000000000000000000000000000000000000000000000000028152600401602060405180830381600087803b151561075857600080fd5b6102c65a03f1151561076957600080fd5b5050506040518051905073ffffffffffffffffffffffffffffffffffffffff16145b15610829576000809054906101000a900473ffffffffffffffffffffffffffffffffffffffff1673ffffffffffffffffffffffffffffffffffffffff16634c86659e6040518163ffffffff167c0100000000000000000000000000000000000000000000000000000000028152600401600060405180830381600087803b151561081457600080fd5b6102c65a03f1151561082557600080fd5b5050505b6000600760009054906101000a900473ffffffffffffffffffffffffffffffffffffffff1673ffffffffffffffffffffffffffffffffffffffff16638da5cb5b6000604051602001526040518163ffffffff167c0100000000000000000000000000000000000000000000000000000000028152600401602060405180830381600087803b15156108b957600080fd5b6102c65a03f115156108ca57600080fd5b5050506040518051905073ffffffffffffffffffffffffffffffffffffffff16141580156109cb57503073ffffffffffffffffffffffffffffffffffffffff16600760009054906101000a900473ffffffffffffffffffffffffffffffffffffffff1673ffffffffffffffffffffffffffffffffffffffff16638da5cb5b6000604051602001526040518163ffffffff167c0100000000000000000000000000000000000000000000000000000000028152600401602060405180830381600087803b151561099857600080fd5b6102c65a03f115156109a957600080fd5b5050506040518051905073ffffffffffffffffffffffffffffffffffffffff16145b15610a6a57600760009054906101000a900473ffffffffffffffffffffffffffffffffffffffff1673ffffffffffffffffffffffffffffffffffffffff16634c86659e6040518163ffffffff167c0100000000000000000000000000000000000000000000000000000000028152600401600060405180830381600087803b1515610a5557600080fd5b6102c65a03f11515610a6657600080fd5b5050505b610a726113da565b565b600360009054906101000a900473ffffffffffffffffffffffffffffffffffffffff1681565b60015481565b60065481565b60045481565b60006006546004541015905090565b600560009054906101000a900473ffffffffffffffffffffffffffffffffffffffff1681565b600560149054906101000a900460ff161515610afc57600080fd5b610b04610aac565b151515610b1057600080fd5b600760009054906101000a900473ffffffffffffffffffffffffffffffffffffffff1673ffffffffffffffffffffffffffffffffffffffff1663fa89401a336040518263ffffffff167c0100000000000000000000000000000000000000000000000000000000028152600401808273ffffffffffffffffffffffffffffffffffffffff1673ffffffffffffffffffffffffffffffffffffffff168152602001915050600060405180830381600087803b1515610bcc57600080fd5b6102c65a03f11515610bdd57600080fd5b505050565b600560149054906101000a900460ff1681565b60006002544211905090565b6000600560009054906101000a900473ffffffffffffffffffffffffffffffffffffffff1673ffffffffffffffffffffffffffffffffffffffff163373ffffffffffffffffffffffffffffffffffffffff16141515610c5f57600080fd5b81600560006101000a81548173ffffffffffffffffffffffffffffffffffffffff021916908373ffffffffffffffffffffffffffffffffffffffff160217905550600560009054906101000a900473ffffffffffffffffffffffffffffffffffffffff1673ffffffffffffffffffffffffffffffffffffffff167f83145fd658f708bac37424791a8ef3907324d87520701e5e966369c6ca583da360405160405180910390a260019050919050565b6000809054906101000a900473ffffffffffffffffffffffffffffffffffffffff1681565b600760009054906101000a900473ffffffffffffffffffffffffffffffffffffffff1681565b60008060006001544210158015610d7257506002544211155b915060003414159050818015610d855750805b9250505090565b60008060008060009054906101000a900473ffffffffffffffffffffffffffffffffffffffff1673ffffffffffffffffffffffffffffffffffffffff16634209b8d9856000604051602001526040518263ffffffff167c010000000000000000000000000000000000000000000000000000000002815260040180828152602001915050602060405180830381600087803b1515610e2957600080fd5b6102c65a03f11515610e3a57600080fd5b5050506040518051905092506000809054906101000a900473ffffffffffffffffffffffffffffffffffffffff1673ffffffffffffffffffffffffffffffffffffffff166340c10f1986856000604051602001526040518363ffffffff167c0100000000000000000000000000000000000000000000000000000000028152600401808373ffffffffffffffffffffffffffffffffffffffff1673ffffffffffffffffffffffffffffffffffffffff16815260200182815260200192505050602060405180830381600087803b1515610f1257600080fd5b6102c65a03f11515610f2357600080fd5b50505060405180519050506000809054906101000a900473ffffffffffffffffffffffffffffffffffffffff1673ffffffffffffffffffffffffffffffffffffffff166370c41eb6846000604051602001526040518263ffffffff167c010000000000000000000000000000000000000000000000000000000002815260040180828152602001915050602060405180830381600087803b1515610fc657600080fd5b6102c65a03f11515610fd757600080fd5b50505060405180519050915081340390503373ffffffffffffffffffffffffffffffffffffffff166108fc829081150290604051600060405180830381858888f19350505050151561102857600080fd5b81600460008282540192505081905550611041826114f8565b8473ffffffffffffffffffffffffffffffffffffffff163373ffffffffffffffffffffffffffffffffffffffff167f623b3804fa71d67900d064613da8f94b9617215ee90799290593e1745087ad188486604051808381526020018281526020019250505060405180910390a35050505050565b6110bd610aac565b1561116057600760009054906101000a900473ffffffffffffffffffffffffffffffffffffffff1673ffffffffffffffffffffffffffffffffffffffff16633ccfd60b6040518163ffffffff167c0100000000000000000000000000000000000000000000000000000000028152600401600060405180830381600087803b151561114757600080fd5b6102c65a03f1151561115857600080fd5b5050506111fa565b600760009054906101000a900473ffffffffffffffffffffffffffffffffffffffff1673ffffffffffffffffffffffffffffffffffffffff16638c52dc416040518163ffffffff167c0100000000000000000000000000000000000000000000000000000000028152600401600060405180830381600087803b15156111e557600080fd5b6102c65a03f115156111f657600080fd5b5050505b3073ffffffffffffffffffffffffffffffffffffffff166000809054906101000a900473ffffffffffffffffffffffffffffffffffffffff1673ffffffffffffffffffffffffffffffffffffffff16638da5cb5b6000604051602001526040518163ffffffff167c0100000000000000000000000000000000000000000000000000000000028152600401602060405180830381600087803b151561129e57600080fd5b6102c65a03f115156112af57600080fd5b5050506040518051905073ffffffffffffffffffffffffffffffffffffffff1614156113d8576000809054906101000a900473ffffffffffffffffffffffffffffffffffffffff1673ffffffffffffffffffffffffffffffffffffffff1663f2fde38b600560009054906101000a900473ffffffffffffffffffffffffffffffffffffffff166000604051602001526040518263ffffffff167c0100000000000000000000000000000000000000000000000000000000028152600401808273ffffffffffffffffffffffffffffffffffffffff1673ffffffffffffffffffffffffffffffffffffffff168152602001915050602060405180830381600087803b15156113bb57600080fd5b6102c65a03f115156113cc57600080fd5b50505060405180519050505b565b600560009054906101000a900473ffffffffffffffffffffffffffffffffffffffff1673ffffffffffffffffffffffffffffffffffffffff163373ffffffffffffffffffffffffffffffffffffffff1614151561143657600080fd5b600560009054906101000a900473ffffffffffffffffffffffffffffffffffffffff1673ffffffffffffffffffffffffffffffffffffffff167f60914ce58216e2f221a19b0647ef2316bb3e20aaf38acaf9ee4290eacd9ff7123073ffffffffffffffffffffffffffffffffffffffff16316040518082815260200191505060405180910390a2600560009054906101000a900473ffffffffffffffffffffffffffffffffffffffff1673ffffffffffffffffffffffffffffffffffffffff16ff5b600760009054906101000a900473ffffffffffffffffffffffffffffffffffffffff1673ffffffffffffffffffffffffffffffffffffffff1663f340fa0182336040518363ffffffff167c0100000000000000000000000000000000000000000000000000000000028152600401808273ffffffffffffffffffffffffffffffffffffffff1673ffffffffffffffffffffffffffffffffffffffff1681526020019150506000604051808303818588803b15156115b457600080fd5b6125ee5a03f115156115c557600080fd5b5050505050565b806000806101000a81548173ffffffffffffffffffffffffffffffffffffffff021916908373ffffffffffffffffffffffffffffffffffffffff1602179055503373ffffffffffffffffffffffffffffffffffffffff166000809054906101000a900473ffffffffffffffffffffffffffffffffffffffff1673ffffffffffffffffffffffffffffffffffffffff16638da5cb5b6000604051602001526040518163ffffffff167c0100000000000000000000000000000000000000000000000000000000028152600401602060405180830381600087803b15156116b057600080fd5b6102c65a03f115156116c157600080fd5b5050506040518051905073ffffffffffffffffffffffffffffffffffffffff161415156116ed57600080fd5b505600a165627a7a72305820ac9655edbae344e246b3ca1451291b137dc3dcc40f87c8760e481db705bb6bc500296060604052341561000f57600080fd5b604051602080610bc883398101604052808051906020019091905050336000806101000a81548173ffffffffffffffffffffffffffffffffffffffff021916908373ffffffffffffffffffffffffffffffffffffffff16021790555060008173ffffffffffffffffffffffffffffffffffffffff161415151561009157600080fd5b80600160006101000a81548173ffffffffffffffffffffffffffffffffffffffff021916908373ffffffffffffffffffffffffffffffffffffffff16021790555060008060146101000a81548160ff021916908360028111156100f057fe5b021790555050610ac3806101056000396000f3006060604052600436106100a4576000357c0100000000000000000000000000000000000000000000000000000000900463ffffffff1680633ccfd60b146100a95780634c86659e146100be578063521eb273146100d35780638c52dc41146101285780638da5cb5b1461013d578063c19d93fb14610192578063cb13cddb146101c9578063f2fde38b14610216578063f340fa0114610267578063fa89401a14610295575b600080fd5b34156100b457600080fd5b6100bc6102ce565b005b34156100c957600080fd5b6100d1610483565b005b34156100de57600080fd5b6100e661059e565b604051808273ffffffffffffffffffffffffffffffffffffffff1673ffffffffffffffffffffffffffffffffffffffff16815260200191505060405180910390f35b341561013357600080fd5b61013b6105c4565b005b341561014857600080fd5b6101506106a5565b604051808273ffffffffffffffffffffffffffffffffffffffff1673ffffffffffffffffffffffffffffffffffffffff16815260200191505060405180910390f35b341561019d57600080fd5b6101a56106ca565b604051808260028111156101b557fe5b60ff16815260200191505060405180910390f35b34156101d457600080fd5b610200600480803573ffffffffffffffffffffffffffffffffffffffff169060200190919050506106dd565b6040518082815260200191505060405180910390f35b341561022157600080fd5b61024d600480803573ffffffffffffffffffffffffffffffffffffffff169060200190919050506106f5565b604051808215151515815260200191505060405180910390f35b610293600480803573ffffffffffffffffffffffffffffffffffffffff169060200190919050506107ff565b005b34156102a057600080fd5b6102cc600480803573ffffffffffffffffffffffffffffffffffffffff169060200190919050506108de565b005b6000809054906101000a900473ffffffffffffffffffffffffffffffffffffffff1673ffffffffffffffffffffffffffffffffffffffff163373ffffffffffffffffffffffffffffffffffffffff1614151561032957600080fd5b6000600281111561033657fe5b600060149054906101000a900460ff16600281111561035157fe5b14151561035d57600080fd5b6002600060146101000a81548160ff0219169083600281111561037c57fe5b0217905550600160009054906101000a900473ffffffffffffffffffffffffffffffffffffffff1673ffffffffffffffffffffffffffffffffffffffff166108fc3073ffffffffffffffffffffffffffffffffffffffff16319081150290604051600060405180830381858888f1935050505015156103fa57600080fd5b600160009054906101000a900473ffffffffffffffffffffffffffffffffffffffff1673ffffffffffffffffffffffffffffffffffffffff167f884edad9ce6fa2440d8a54cc123490eb96d2768479d49ff9c7366125a94243643073ffffffffffffffffffffffffffffffffffffffff16316040518082815260200191505060405180910390a2565b6000809054906101000a900473ffffffffffffffffffffffffffffffffffffffff1673ffffffffffffffffffffffffffffffffffffffff163373ffffffffffffffffffffffffffffffffffffffff161415156104de57600080fd5b6000809054906101000a900473ffffffffffffffffffffffffffffffffffffffff1673ffffffffffffffffffffffffffffffffffffffff167f60914ce58216e2f221a19b0647ef2316bb3e20aaf38acaf9ee4290eacd9ff7123073ffffffffffffffffffffffffffffffffffffffff16316040518082815260200191505060405180910390a26000809054906101000a900473ffffffffffffffffffffffffffffffffffffffff1673ffffffffffffffffffffffffffffffffffffffff16ff5b600160009054906101000a900473ffffffffffffffffffffffffffffffffffffffff1681565b6000809054906101000a900473ffffffffffffffffffffffffffffffffffffffff1673ffffffffffffffffffffffffffffffffffffffff163373ffffffffffffffffffffffffffffffffffffffff1614151561061f57600080fd5b6000600281111561062c57fe5b600060149054906101000a900460ff16600281111561064757fe5b14151561065357600080fd5b6001600060146101000a81548160ff0219169083600281111561067257fe5b02179055507f599d8e5a83cffb867d051598c4d70e805d59802d8081c1c7d6dffc5b6aca2b8960405160405180910390a1565b6000809054906101000a900473ffffffffffffffffffffffffffffffffffffffff1681565b600060149054906101000a900460ff1681565b60026020528060005260406000206000915090505481565b60008060009054906101000a900473ffffffffffffffffffffffffffffffffffffffff1673ffffffffffffffffffffffffffffffffffffffff163373ffffffffffffffffffffffffffffffffffffffff1614151561075257600080fd5b816000806101000a81548173ffffffffffffffffffffffffffffffffffffffff021916908373ffffffffffffffffffffffffffffffffffffffff1602179055506000809054906101000a900473ffffffffffffffffffffffffffffffffffffffff1673ffffffffffffffffffffffffffffffffffffffff167f83145fd658f708bac37424791a8ef3907324d87520701e5e966369c6ca583da360405160405180910390a260019050919050565b6000809054906101000a900473ffffffffffffffffffffffffffffffffffffffff1673ffffffffffffffffffffffffffffffffffffffff163373ffffffffffffffffffffffffffffffffffffffff1614151561085a57600080fd5b6000600281111561086757fe5b600060149054906101000a900460ff16600281111561088257fe5b14151561088e57600080fd5b34600260008373ffffffffffffffffffffffffffffffffffffffff1673ffffffffffffffffffffffffffffffffffffffff1681526020019081526020016000206000828254019250508190555050565b60008060009054906101000a900473ffffffffffffffffffffffffffffffffffffffff1673ffffffffffffffffffffffffffffffffffffffff163373ffffffffffffffffffffffffffffffffffffffff1614151561093b57600080fd5b6001600281111561094857fe5b600060149054906101000a900460ff16600281111561096357fe5b14151561096f57600080fd5b600260008373ffffffffffffffffffffffffffffffffffffffff1673ffffffffffffffffffffffffffffffffffffffff1681526020019081526020016000205490506000811115156109c057600080fd5b6000600260008473ffffffffffffffffffffffffffffffffffffffff1673ffffffffffffffffffffffffffffffffffffffff168152602001908152602001600020819055508173ffffffffffffffffffffffffffffffffffffffff166108fc829081150290604051600060405180830381858888f193505050501515610a4557600080fd5b8173ffffffffffffffffffffffffffffffffffffffff167fbb28353e4598c3b9199101a66e0989549b659a59a54d2c27fbb183f1932c8e6d826040518082815260200191505060405180910390a250505600a165627a7a7230582041e26a31aa2c1f220d668ef4685da975f0fcf9b955c540604e8bc0b4d2f0c00f0029",
  "source": "pragma solidity ^0.4.15;\n\nimport './Crowdsale-Token.sol';\nimport './Crowdsale-Refundable.sol';\nimport './Utils-Disposable.sol';\n\ncontract CrowdsaleFiets is Crowdsale, Refundable, Disposable {\n\t// Basic Crowdsale Properties\n  uint256 _startTime = now;\n  uint256 _endTime = now + 1 * 1 days;\n  address _wallet = msg.sender;\n\n\t// Refundable Crowdsale Properties\n\tuint256 private _fundingGoal = 21;\n\n\t/* Initializes contract with its initial Basic and Tradeable properties */\n\tfunction CrowdsaleFiets(\n    address _token\n\t) Crowdsale (\n      _startTime, _endTime, _wallet, _token\n  ) Refundable (\n\t\t_fundingGoal\n\t) public {}\n\n  // Overriding the basic function to give change when buying tokens\n  function _buy(address _to, uint256 _value) internal {\n      uint256 tokenAmount = crowdsaleToken.amountOfTokensToBuy(_value);       // calculate token amount to be created\n      crowdsaleToken.mint(_to, tokenAmount);\n\n      var tokenValue = crowdsaleToken.valueOfTokensToSell(tokenAmount);\n      var change = msg.value - tokenValue;\n      msg.sender.transfer(change);     \t\t\t\t\t// returns change to the sender.\n\n      // update state\n      amountRaised += tokenValue;\n      forwardFunds(tokenValue);\t\t\t\t\t\t\t// Stores in the vault only the value of the purchased tokens\n      TokenPurchase(msg.sender, _to, tokenValue, tokenAmount);\n  }\n\n\t// Custom disposing method (Token -> Vault -> Crowdsale)\n\tfunction dispose() public onlyOwner {\n\t    if (crowdsaleToken.owner() != 0 && crowdsaleToken.owner() == address(this)) {\n\t        crowdsaleToken.dispose();\n\t    }\n\t    if (vault.owner() != 0 && vault.owner() == address(this)) {\n\t        vault.dispose();\n\t    }\n\t    super.dispose();\n\t}\n}\n",
  "sourcePath": "/Volumes/MacHDD/Andres/Documents/Projects/z.projects.nosync/react-solidity/contracts/Deploy-Crowdsale-Fiets.sol",
  "compiler": {
    "name": "solc",
    "version": "0.4.18+commit.9cf6e910.Emscripten.clang"
  },
  "schemaVersion": "1.0.1",
  "updatedAt": "2017-11-03T00:08:51.683Z",
  "contract_name": "CrowdsaleFiets",
  "unlinked_binary": "0x60606040526000600560146101000a81548160ff0219169083151502179055504260085562015180420160095533600a60006101000a81548173ffffffffffffffffffffffffffffffffffffffff021916908373ffffffffffffffffffffffffffffffffffffffff1602179055506015600b5534156200007e57600080fd5b604051602080620026af83398101604052808051906020019091905050600b54600854600954600a60009054906101000a900473ffffffffffffffffffffffffffffffffffffffff1684428410151515620000d857600080fd5b838310151515620000e857600080fd5b60008273ffffffffffffffffffffffffffffffffffffffff16141515156200010f57600080fd5b6200012e816200028364010000000002620015cc176401000000009004565b836001819055508260028190555081600360006101000a81548173ffffffffffffffffffffffffffffffffffffffff021916908373ffffffffffffffffffffffffffffffffffffffff1602179055505050505033600560006101000a81548173ffffffffffffffffffffffffffffffffffffffff021916908373ffffffffffffffffffffffffffffffffffffffff160217905550600081111515620001d257600080fd5b33620001dd620003aa565b808273ffffffffffffffffffffffffffffffffffffffff1673ffffffffffffffffffffffffffffffffffffffff168152602001915050604051809103906000f08015156200022a57600080fd5b600760006101000a81548173ffffffffffffffffffffffffffffffffffffffff021916908373ffffffffffffffffffffffffffffffffffffffff160217905550670de0b6b3a764000081026006819055505050620003bb565b806000806101000a81548173ffffffffffffffffffffffffffffffffffffffff021916908373ffffffffffffffffffffffffffffffffffffffff1602179055503373ffffffffffffffffffffffffffffffffffffffff166000809054906101000a900473ffffffffffffffffffffffffffffffffffffffff1673ffffffffffffffffffffffffffffffffffffffff16638da5cb5b6000604051602001526040518163ffffffff167c0100000000000000000000000000000000000000000000000000000000028152600401602060405180830381600087803b15156200036857600080fd5b6102c65a03f115156200037a57600080fd5b5050506040518051905073ffffffffffffffffffffffffffffffffffffffff16141515620003a757600080fd5b50565b604051610bc88062001ae783390190565b61171c80620003cb6000396000f3006060604052600436106100e6576000357c0100000000000000000000000000000000000000000000000000000000900463ffffffff1680633197cbb6146100f157806343d726d61461011a5780634c86659e1461012f578063521eb2731461014457806378e97925146101995780637a3a0e84146101c25780637b3e5e7b146101eb5780637d3d6522146102145780638da5cb5b14610241578063b5545a3c14610296578063c2b6b58c146102ab578063ec8ac4d8146102d8578063ecb70fb714610306578063f2fde38b14610333578063fa65dfac14610384578063fbfa77cf146103d9575b6100ef3361042e565b005b34156100fc57600080fd5b610104610474565b6040518082815260200191505060405180910390f35b341561012557600080fd5b61012d61047a565b005b341561013a57600080fd5b61014261058f565b005b341561014f57600080fd5b610157610a74565b604051808273ffffffffffffffffffffffffffffffffffffffff1673ffffffffffffffffffffffffffffffffffffffff16815260200191505060405180910390f35b34156101a457600080fd5b6101ac610a9a565b6040518082815260200191505060405180910390f35b34156101cd57600080fd5b6101d5610aa0565b6040518082815260200191505060405180910390f35b34156101f657600080fd5b6101fe610aa6565b6040518082815260200191505060405180910390f35b341561021f57600080fd5b610227610aac565b604051808215151515815260200191505060405180910390f35b341561024c57600080fd5b610254610abb565b604051808273ffffffffffffffffffffffffffffffffffffffff1673ffffffffffffffffffffffffffffffffffffffff16815260200191505060405180910390f35b34156102a157600080fd5b6102a9610ae1565b005b34156102b657600080fd5b6102be610be2565b604051808215151515815260200191505060405180910390f35b610304600480803573ffffffffffffffffffffffffffffffffffffffff1690602001909190505061042e565b005b341561031157600080fd5b610319610bf5565b604051808215151515815260200191505060405180910390f35b341561033e57600080fd5b61036a600480803573ffffffffffffffffffffffffffffffffffffffff16906020019091905050610c01565b604051808215151515815260200191505060405180910390f35b341561038f57600080fd5b610397610d0e565b604051808273ffffffffffffffffffffffffffffffffffffffff1673ffffffffffffffffffffffffffffffffffffffff16815260200191505060405180910390f35b34156103e457600080fd5b6103ec610d33565b604051808273ffffffffffffffffffffffffffffffffffffffff1673ffffffffffffffffffffffffffffffffffffffff16815260200191505060405180910390f35b60008173ffffffffffffffffffffffffffffffffffffffff161415151561045457600080fd5b61045c610d59565b151561046757600080fd5b6104718134610d8c565b50565b60025481565b600560009054906101000a900473ffffffffffffffffffffffffffffffffffffffff1673ffffffffffffffffffffffffffffffffffffffff163373ffffffffffffffffffffffffffffffffffffffff161415156104d657600080fd5b600560149054906101000a900460ff161515156104f257600080fd5b6104fa610bf5565b151561050557600080fd5b61050d6110b5565b6001600560146101000a81548160ff021916908315150217905550600560009054906101000a900473ffffffffffffffffffffffffffffffffffffffff1673ffffffffffffffffffffffffffffffffffffffff167f2a6b157a3657e33e5e8d0edfd23395833d4241ec1834db5523867157650dc6d260405160405180910390a2565b600560009054906101000a900473ffffffffffffffffffffffffffffffffffffffff1673ffffffffffffffffffffffffffffffffffffffff163373ffffffffffffffffffffffffffffffffffffffff161415156105eb57600080fd5b60008060009054906101000a900473ffffffffffffffffffffffffffffffffffffffff1673ffffffffffffffffffffffffffffffffffffffff16638da5cb5b6000604051602001526040518163ffffffff167c0100000000000000000000000000000000000000000000000000000000028152600401602060405180830381600087803b151561067a57600080fd5b6102c65a03f1151561068b57600080fd5b5050506040518051905073ffffffffffffffffffffffffffffffffffffffff161415801561078b57503073ffffffffffffffffffffffffffffffffffffffff166000809054906101000a900473ffffffffffffffffffffffffffffffffffffffff1673ffffffffffffffffffffffffffffffffffffffff16638da5cb5b6000604051602001526040518163ffffffff167c0100000000000000000000000000000000000000000000000000000000028152600401602060405180830381600087803b151561075857600080fd5b6102c65a03f1151561076957600080fd5b5050506040518051905073ffffffffffffffffffffffffffffffffffffffff16145b15610829576000809054906101000a900473ffffffffffffffffffffffffffffffffffffffff1673ffffffffffffffffffffffffffffffffffffffff16634c86659e6040518163ffffffff167c0100000000000000000000000000000000000000000000000000000000028152600401600060405180830381600087803b151561081457600080fd5b6102c65a03f1151561082557600080fd5b5050505b6000600760009054906101000a900473ffffffffffffffffffffffffffffffffffffffff1673ffffffffffffffffffffffffffffffffffffffff16638da5cb5b6000604051602001526040518163ffffffff167c0100000000000000000000000000000000000000000000000000000000028152600401602060405180830381600087803b15156108b957600080fd5b6102c65a03f115156108ca57600080fd5b5050506040518051905073ffffffffffffffffffffffffffffffffffffffff16141580156109cb57503073ffffffffffffffffffffffffffffffffffffffff16600760009054906101000a900473ffffffffffffffffffffffffffffffffffffffff1673ffffffffffffffffffffffffffffffffffffffff16638da5cb5b6000604051602001526040518163ffffffff167c0100000000000000000000000000000000000000000000000000000000028152600401602060405180830381600087803b151561099857600080fd5b6102c65a03f115156109a957600080fd5b5050506040518051905073ffffffffffffffffffffffffffffffffffffffff16145b15610a6a57600760009054906101000a900473ffffffffffffffffffffffffffffffffffffffff1673ffffffffffffffffffffffffffffffffffffffff16634c86659e6040518163ffffffff167c0100000000000000000000000000000000000000000000000000000000028152600401600060405180830381600087803b1515610a5557600080fd5b6102c65a03f11515610a6657600080fd5b5050505b610a726113da565b565b600360009054906101000a900473ffffffffffffffffffffffffffffffffffffffff1681565b60015481565b60065481565b60045481565b60006006546004541015905090565b600560009054906101000a900473ffffffffffffffffffffffffffffffffffffffff1681565b600560149054906101000a900460ff161515610afc57600080fd5b610b04610aac565b151515610b1057600080fd5b600760009054906101000a900473ffffffffffffffffffffffffffffffffffffffff1673ffffffffffffffffffffffffffffffffffffffff1663fa89401a336040518263ffffffff167c0100000000000000000000000000000000000000000000000000000000028152600401808273ffffffffffffffffffffffffffffffffffffffff1673ffffffffffffffffffffffffffffffffffffffff168152602001915050600060405180830381600087803b1515610bcc57600080fd5b6102c65a03f11515610bdd57600080fd5b505050565b600560149054906101000a900460ff1681565b60006002544211905090565b6000600560009054906101000a900473ffffffffffffffffffffffffffffffffffffffff1673ffffffffffffffffffffffffffffffffffffffff163373ffffffffffffffffffffffffffffffffffffffff16141515610c5f57600080fd5b81600560006101000a81548173ffffffffffffffffffffffffffffffffffffffff021916908373ffffffffffffffffffffffffffffffffffffffff160217905550600560009054906101000a900473ffffffffffffffffffffffffffffffffffffffff1673ffffffffffffffffffffffffffffffffffffffff167f83145fd658f708bac37424791a8ef3907324d87520701e5e966369c6ca583da360405160405180910390a260019050919050565b6000809054906101000a900473ffffffffffffffffffffffffffffffffffffffff1681565b600760009054906101000a900473ffffffffffffffffffffffffffffffffffffffff1681565b60008060006001544210158015610d7257506002544211155b915060003414159050818015610d855750805b9250505090565b60008060008060009054906101000a900473ffffffffffffffffffffffffffffffffffffffff1673ffffffffffffffffffffffffffffffffffffffff16634209b8d9856000604051602001526040518263ffffffff167c010000000000000000000000000000000000000000000000000000000002815260040180828152602001915050602060405180830381600087803b1515610e2957600080fd5b6102c65a03f11515610e3a57600080fd5b5050506040518051905092506000809054906101000a900473ffffffffffffffffffffffffffffffffffffffff1673ffffffffffffffffffffffffffffffffffffffff166340c10f1986856000604051602001526040518363ffffffff167c0100000000000000000000000000000000000000000000000000000000028152600401808373ffffffffffffffffffffffffffffffffffffffff1673ffffffffffffffffffffffffffffffffffffffff16815260200182815260200192505050602060405180830381600087803b1515610f1257600080fd5b6102c65a03f11515610f2357600080fd5b50505060405180519050506000809054906101000a900473ffffffffffffffffffffffffffffffffffffffff1673ffffffffffffffffffffffffffffffffffffffff166370c41eb6846000604051602001526040518263ffffffff167c010000000000000000000000000000000000000000000000000000000002815260040180828152602001915050602060405180830381600087803b1515610fc657600080fd5b6102c65a03f11515610fd757600080fd5b50505060405180519050915081340390503373ffffffffffffffffffffffffffffffffffffffff166108fc829081150290604051600060405180830381858888f19350505050151561102857600080fd5b81600460008282540192505081905550611041826114f8565b8473ffffffffffffffffffffffffffffffffffffffff163373ffffffffffffffffffffffffffffffffffffffff167f623b3804fa71d67900d064613da8f94b9617215ee90799290593e1745087ad188486604051808381526020018281526020019250505060405180910390a35050505050565b6110bd610aac565b1561116057600760009054906101000a900473ffffffffffffffffffffffffffffffffffffffff1673ffffffffffffffffffffffffffffffffffffffff16633ccfd60b6040518163ffffffff167c0100000000000000000000000000000000000000000000000000000000028152600401600060405180830381600087803b151561114757600080fd5b6102c65a03f1151561115857600080fd5b5050506111fa565b600760009054906101000a900473ffffffffffffffffffffffffffffffffffffffff1673ffffffffffffffffffffffffffffffffffffffff16638c52dc416040518163ffffffff167c0100000000000000000000000000000000000000000000000000000000028152600401600060405180830381600087803b15156111e557600080fd5b6102c65a03f115156111f657600080fd5b5050505b3073ffffffffffffffffffffffffffffffffffffffff166000809054906101000a900473ffffffffffffffffffffffffffffffffffffffff1673ffffffffffffffffffffffffffffffffffffffff16638da5cb5b6000604051602001526040518163ffffffff167c0100000000000000000000000000000000000000000000000000000000028152600401602060405180830381600087803b151561129e57600080fd5b6102c65a03f115156112af57600080fd5b5050506040518051905073ffffffffffffffffffffffffffffffffffffffff1614156113d8576000809054906101000a900473ffffffffffffffffffffffffffffffffffffffff1673ffffffffffffffffffffffffffffffffffffffff1663f2fde38b600560009054906101000a900473ffffffffffffffffffffffffffffffffffffffff166000604051602001526040518263ffffffff167c0100000000000000000000000000000000000000000000000000000000028152600401808273ffffffffffffffffffffffffffffffffffffffff1673ffffffffffffffffffffffffffffffffffffffff168152602001915050602060405180830381600087803b15156113bb57600080fd5b6102c65a03f115156113cc57600080fd5b50505060405180519050505b565b600560009054906101000a900473ffffffffffffffffffffffffffffffffffffffff1673ffffffffffffffffffffffffffffffffffffffff163373ffffffffffffffffffffffffffffffffffffffff1614151561143657600080fd5b600560009054906101000a900473ffffffffffffffffffffffffffffffffffffffff1673ffffffffffffffffffffffffffffffffffffffff167f60914ce58216e2f221a19b0647ef2316bb3e20aaf38acaf9ee4290eacd9ff7123073ffffffffffffffffffffffffffffffffffffffff16316040518082815260200191505060405180910390a2600560009054906101000a900473ffffffffffffffffffffffffffffffffffffffff1673ffffffffffffffffffffffffffffffffffffffff16ff5b600760009054906101000a900473ffffffffffffffffffffffffffffffffffffffff1673ffffffffffffffffffffffffffffffffffffffff1663f340fa0182336040518363ffffffff167c0100000000000000000000000000000000000000000000000000000000028152600401808273ffffffffffffffffffffffffffffffffffffffff1673ffffffffffffffffffffffffffffffffffffffff1681526020019150506000604051808303818588803b15156115b457600080fd5b6125ee5a03f115156115c557600080fd5b5050505050565b806000806101000a81548173ffffffffffffffffffffffffffffffffffffffff021916908373ffffffffffffffffffffffffffffffffffffffff1602179055503373ffffffffffffffffffffffffffffffffffffffff166000809054906101000a900473ffffffffffffffffffffffffffffffffffffffff1673ffffffffffffffffffffffffffffffffffffffff16638da5cb5b6000604051602001526040518163ffffffff167c0100000000000000000000000000000000000000000000000000000000028152600401602060405180830381600087803b15156116b057600080fd5b6102c65a03f115156116c157600080fd5b5050506040518051905073ffffffffffffffffffffffffffffffffffffffff161415156116ed57600080fd5b505600a165627a7a72305820ac9655edbae344e246b3ca1451291b137dc3dcc40f87c8760e481db705bb6bc500296060604052341561000f57600080fd5b604051602080610bc883398101604052808051906020019091905050336000806101000a81548173ffffffffffffffffffffffffffffffffffffffff021916908373ffffffffffffffffffffffffffffffffffffffff16021790555060008173ffffffffffffffffffffffffffffffffffffffff161415151561009157600080fd5b80600160006101000a81548173ffffffffffffffffffffffffffffffffffffffff021916908373ffffffffffffffffffffffffffffffffffffffff16021790555060008060146101000a81548160ff021916908360028111156100f057fe5b021790555050610ac3806101056000396000f3006060604052600436106100a4576000357c0100000000000000000000000000000000000000000000000000000000900463ffffffff1680633ccfd60b146100a95780634c86659e146100be578063521eb273146100d35780638c52dc41146101285780638da5cb5b1461013d578063c19d93fb14610192578063cb13cddb146101c9578063f2fde38b14610216578063f340fa0114610267578063fa89401a14610295575b600080fd5b34156100b457600080fd5b6100bc6102ce565b005b34156100c957600080fd5b6100d1610483565b005b34156100de57600080fd5b6100e661059e565b604051808273ffffffffffffffffffffffffffffffffffffffff1673ffffffffffffffffffffffffffffffffffffffff16815260200191505060405180910390f35b341561013357600080fd5b61013b6105c4565b005b341561014857600080fd5b6101506106a5565b604051808273ffffffffffffffffffffffffffffffffffffffff1673ffffffffffffffffffffffffffffffffffffffff16815260200191505060405180910390f35b341561019d57600080fd5b6101a56106ca565b604051808260028111156101b557fe5b60ff16815260200191505060405180910390f35b34156101d457600080fd5b610200600480803573ffffffffffffffffffffffffffffffffffffffff169060200190919050506106dd565b6040518082815260200191505060405180910390f35b341561022157600080fd5b61024d600480803573ffffffffffffffffffffffffffffffffffffffff169060200190919050506106f5565b604051808215151515815260200191505060405180910390f35b610293600480803573ffffffffffffffffffffffffffffffffffffffff169060200190919050506107ff565b005b34156102a057600080fd5b6102cc600480803573ffffffffffffffffffffffffffffffffffffffff169060200190919050506108de565b005b6000809054906101000a900473ffffffffffffffffffffffffffffffffffffffff1673ffffffffffffffffffffffffffffffffffffffff163373ffffffffffffffffffffffffffffffffffffffff1614151561032957600080fd5b6000600281111561033657fe5b600060149054906101000a900460ff16600281111561035157fe5b14151561035d57600080fd5b6002600060146101000a81548160ff0219169083600281111561037c57fe5b0217905550600160009054906101000a900473ffffffffffffffffffffffffffffffffffffffff1673ffffffffffffffffffffffffffffffffffffffff166108fc3073ffffffffffffffffffffffffffffffffffffffff16319081150290604051600060405180830381858888f1935050505015156103fa57600080fd5b600160009054906101000a900473ffffffffffffffffffffffffffffffffffffffff1673ffffffffffffffffffffffffffffffffffffffff167f884edad9ce6fa2440d8a54cc123490eb96d2768479d49ff9c7366125a94243643073ffffffffffffffffffffffffffffffffffffffff16316040518082815260200191505060405180910390a2565b6000809054906101000a900473ffffffffffffffffffffffffffffffffffffffff1673ffffffffffffffffffffffffffffffffffffffff163373ffffffffffffffffffffffffffffffffffffffff161415156104de57600080fd5b6000809054906101000a900473ffffffffffffffffffffffffffffffffffffffff1673ffffffffffffffffffffffffffffffffffffffff167f60914ce58216e2f221a19b0647ef2316bb3e20aaf38acaf9ee4290eacd9ff7123073ffffffffffffffffffffffffffffffffffffffff16316040518082815260200191505060405180910390a26000809054906101000a900473ffffffffffffffffffffffffffffffffffffffff1673ffffffffffffffffffffffffffffffffffffffff16ff5b600160009054906101000a900473ffffffffffffffffffffffffffffffffffffffff1681565b6000809054906101000a900473ffffffffffffffffffffffffffffffffffffffff1673ffffffffffffffffffffffffffffffffffffffff163373ffffffffffffffffffffffffffffffffffffffff1614151561061f57600080fd5b6000600281111561062c57fe5b600060149054906101000a900460ff16600281111561064757fe5b14151561065357600080fd5b6001600060146101000a81548160ff0219169083600281111561067257fe5b02179055507f599d8e5a83cffb867d051598c4d70e805d59802d8081c1c7d6dffc5b6aca2b8960405160405180910390a1565b6000809054906101000a900473ffffffffffffffffffffffffffffffffffffffff1681565b600060149054906101000a900460ff1681565b60026020528060005260406000206000915090505481565b60008060009054906101000a900473ffffffffffffffffffffffffffffffffffffffff1673ffffffffffffffffffffffffffffffffffffffff163373ffffffffffffffffffffffffffffffffffffffff1614151561075257600080fd5b816000806101000a81548173ffffffffffffffffffffffffffffffffffffffff021916908373ffffffffffffffffffffffffffffffffffffffff1602179055506000809054906101000a900473ffffffffffffffffffffffffffffffffffffffff1673ffffffffffffffffffffffffffffffffffffffff167f83145fd658f708bac37424791a8ef3907324d87520701e5e966369c6ca583da360405160405180910390a260019050919050565b6000809054906101000a900473ffffffffffffffffffffffffffffffffffffffff1673ffffffffffffffffffffffffffffffffffffffff163373ffffffffffffffffffffffffffffffffffffffff1614151561085a57600080fd5b6000600281111561086757fe5b600060149054906101000a900460ff16600281111561088257fe5b14151561088e57600080fd5b34600260008373ffffffffffffffffffffffffffffffffffffffff1673ffffffffffffffffffffffffffffffffffffffff1681526020019081526020016000206000828254019250508190555050565b60008060009054906101000a900473ffffffffffffffffffffffffffffffffffffffff1673ffffffffffffffffffffffffffffffffffffffff163373ffffffffffffffffffffffffffffffffffffffff1614151561093b57600080fd5b6001600281111561094857fe5b600060149054906101000a900460ff16600281111561096357fe5b14151561096f57600080fd5b600260008373ffffffffffffffffffffffffffffffffffffffff1673ffffffffffffffffffffffffffffffffffffffff1681526020019081526020016000205490506000811115156109c057600080fd5b6000600260008473ffffffffffffffffffffffffffffffffffffffff1673ffffffffffffffffffffffffffffffffffffffff168152602001908152602001600020819055508173ffffffffffffffffffffffffffffffffffffffff166108fc829081150290604051600060405180830381858888f193505050501515610a4557600080fd5b8173ffffffffffffffffffffffffffffffffffffffff167fbb28353e4598c3b9199101a66e0989549b659a59a54d2c27fbb183f1932c8e6d826040518082815260200191505060405180910390a250505600a165627a7a7230582041e26a31aa2c1f220d668ef4685da975f0fcf9b955c540604e8bc0b4d2f0c00f0029",
  "schema_version": "0.0.5",
  "updated_at": 1512647092450
}