{
  "contractName": "Crowdsale",
  "abi": [
    {
      "constant": true,
      "inputs": [],
      "name": "endTime",
      "outputs": [
        {
          "name": "",
          "type": "uint256"
        }
      ],
      "payable": false,
      "type": "function"
    },
    {
      "constant": true,
      "inputs": [],
      "name": "wallet",
      "outputs": [
        {
          "name": "",
          "type": "address"
        }
      ],
      "payable": false,
      "type": "function"
    },
    {
      "constant": true,
      "inputs": [],
      "name": "startTime",
      "outputs": [
        {
          "name": "",
          "type": "uint256"
        }
      ],
      "payable": false,
      "type": "function"
    },
    {
      "constant": true,
      "inputs": [],
      "name": "amountRaised",
      "outputs": [
        {
          "name": "",
          "type": "uint256"
        }
      ],
      "payable": false,
      "type": "function"
    },
    {
      "constant": false,
      "inputs": [
        {
          "name": "beneficiary",
          "type": "address"
        }
      ],
      "name": "buyTokens",
      "outputs": [],
      "payable": true,
      "type": "function"
    },
    {
      "constant": true,
      "inputs": [],
      "name": "hasEnded",
      "outputs": [
        {
          "name": "",
          "type": "bool"
        }
      ],
      "payable": false,
      "type": "function"
    },
    {
      "constant": true,
      "inputs": [],
      "name": "crowdsaleToken",
      "outputs": [
        {
          "name": "",
          "type": "address"
        }
      ],
      "payable": false,
      "type": "function"
    },
    {
      "inputs": [
        {
          "name": "_startTime",
          "type": "uint256"
        },
        {
          "name": "_endTime",
          "type": "uint256"
        },
        {
          "name": "_wallet",
          "type": "address"
        },
        {
          "name": "_tokenAddress",
          "type": "address"
        }
      ],
      "payable": false,
      "type": "constructor"
    },
    {
      "payable": true,
      "type": "fallback"
    },
    {
      "anonymous": false,
      "inputs": [
        {
          "indexed": true,
          "name": "purchaser",
          "type": "address"
        },
        {
          "indexed": true,
          "name": "beneficiary",
          "type": "address"
        },
        {
          "indexed": false,
          "name": "value",
          "type": "uint256"
        },
        {
          "indexed": false,
          "name": "amount",
          "type": "uint256"
        }
      ],
      "name": "TokenPurchase",
      "type": "event"
    }
  ],
  "bytecode": "0x6060604052341561000f57600080fd5b6040516080806109008339810160405280805190602001909190805190602001909190805190602001909190805190602001909190505042841015151561005557600080fd5b83831015151561006457600080fd5b60008273ffffffffffffffffffffffffffffffffffffffff161415151561008a57600080fd5b6100a6816100fe6401000000000261057f176401000000009004565b836001819055508260028190555081600360006101000a81548173ffffffffffffffffffffffffffffffffffffffff021916908373ffffffffffffffffffffffffffffffffffffffff16021790555050505050610222565b806000806101000a81548173ffffffffffffffffffffffffffffffffffffffff021916908373ffffffffffffffffffffffffffffffffffffffff1602179055503373ffffffffffffffffffffffffffffffffffffffff166000809054906101000a900473ffffffffffffffffffffffffffffffffffffffff1673ffffffffffffffffffffffffffffffffffffffff16638da5cb5b6000604051602001526040518163ffffffff167c0100000000000000000000000000000000000000000000000000000000028152600401602060405180830381600087803b15156101e257600080fd5b6102c65a03f115156101f357600080fd5b5050506040518051905073ffffffffffffffffffffffffffffffffffffffff1614151561021f57600080fd5b50565b6106cf806102316000396000f300606060405260043610610083576000357c0100000000000000000000000000000000000000000000000000000000900463ffffffff1680633197cbb61461008e578063521eb273146100b757806378e979251461010c5780637b3e5e7b14610135578063ec8ac4d81461015e578063ecb70fb71461018c578063fa65dfac146101b9575b61008c3361020e565b005b341561009957600080fd5b6100a1610254565b6040518082815260200191505060405180910390f35b34156100c257600080fd5b6100ca61025a565b604051808273ffffffffffffffffffffffffffffffffffffffff1673ffffffffffffffffffffffffffffffffffffffff16815260200191505060405180910390f35b341561011757600080fd5b61011f610280565b6040518082815260200191505060405180910390f35b341561014057600080fd5b610148610286565b6040518082815260200191505060405180910390f35b61018a600480803573ffffffffffffffffffffffffffffffffffffffff1690602001909190505061020e565b005b341561019757600080fd5b61019f61028c565b604051808215151515815260200191505060405180910390f35b34156101c457600080fd5b6101cc610298565b604051808273ffffffffffffffffffffffffffffffffffffffff1673ffffffffffffffffffffffffffffffffffffffff16815260200191505060405180910390f35b60008173ffffffffffffffffffffffffffffffffffffffff161415151561023457600080fd5b61023c6102bd565b151561024757600080fd5b61025181346102f0565b50565b60025481565b600360009054906101000a900473ffffffffffffffffffffffffffffffffffffffff1681565b60015481565b60045481565b60006002544211905090565b6000809054906101000a900473ffffffffffffffffffffffffffffffffffffffff1681565b600080600060015442101580156102d657506002544211155b9150600034141590508180156102e95750805b9250505090565b60008060009054906101000a900473ffffffffffffffffffffffffffffffffffffffff1673ffffffffffffffffffffffffffffffffffffffff16634209b8d9836000604051602001526040518263ffffffff167c010000000000000000000000000000000000000000000000000000000002815260040180828152602001915050602060405180830381600087803b151561038a57600080fd5b6102c65a03f1151561039b57600080fd5b5050506040518051905090506000809054906101000a900473ffffffffffffffffffffffffffffffffffffffff1673ffffffffffffffffffffffffffffffffffffffff166340c10f1984836000604051602001526040518363ffffffff167c0100000000000000000000000000000000000000000000000000000000028152600401808373ffffffffffffffffffffffffffffffffffffffff1673ffffffffffffffffffffffffffffffffffffffff16815260200182815260200192505050602060405180830381600087803b151561047357600080fd5b6102c65a03f1151561048457600080fd5b5050506040518051905050816004600082825401925050819055506104a88261051a565b8273ffffffffffffffffffffffffffffffffffffffff163373ffffffffffffffffffffffffffffffffffffffff167f623b3804fa71d67900d064613da8f94b9617215ee90799290593e1745087ad188484604051808381526020018281526020019250505060405180910390a3505050565b600360009054906101000a900473ffffffffffffffffffffffffffffffffffffffff1673ffffffffffffffffffffffffffffffffffffffff166108fc829081150290604051600060405180830381858888f19350505050151561057c57600080fd5b50565b806000806101000a81548173ffffffffffffffffffffffffffffffffffffffff021916908373ffffffffffffffffffffffffffffffffffffffff1602179055503373ffffffffffffffffffffffffffffffffffffffff166000809054906101000a900473ffffffffffffffffffffffffffffffffffffffff1673ffffffffffffffffffffffffffffffffffffffff16638da5cb5b6000604051602001526040518163ffffffff167c0100000000000000000000000000000000000000000000000000000000028152600401602060405180830381600087803b151561066357600080fd5b6102c65a03f1151561067457600080fd5b5050506040518051905073ffffffffffffffffffffffffffffffffffffffff161415156106a057600080fd5b505600a165627a7a723058208e7164d173f44422642e43b3358a278664b98954ee67c2d3e3791490edc29a3b0029",
  "source": "pragma solidity ^0.4.15;\n\nimport './Crowdsale-Token.sol';\n\n/**\n* @title Crowdsale\n* @dev Crowdsale is a base contract for managing a token crowdsale.\n* Crowdsales have a start and end timestamps, where investors can make\n* token purchases and the crowdsale will assign them tokens based\n* on a token per ETH rate. Funds collected are forwarded to a wallet\n* as they arrive.\n*/\ncontract Crowdsale {\n    // The token being sold\n    CrowdsaleToken public crowdsaleToken;\n\n    // start and end timestamps where investments are allowed (both inclusive)\n    uint256 public startTime;\n    uint256 public endTime;\n\n    // address where funds are collected\n    address public wallet;\n\n    // amount of raised money in wei\n    uint256 public amountRaised;\n\n    /**\n    * event for token purchase logging\n    * @param purchaser who paid for the tokens\n    * @param beneficiary who got the tokens\n    * @param value weis paid for purchase\n    * @param amount amount of tokens purchased\n    */\n    event TokenPurchase(address indexed purchaser, address indexed beneficiary, uint256 value, uint256 amount);\n\n    function Crowdsale(uint256 _startTime, uint256 _endTime, address _wallet, address _tokenAddress) public {\n        require(_startTime >= now);\n        require(_endTime >= _startTime);\n        require(_wallet != 0x0);\n\n        _setTokenContract(_tokenAddress);\n\n        startTime = _startTime;\n        endTime = _endTime;\n        wallet = _wallet;\n    }\n\n\t// internal method that creates/instantiates the token to be sold.\n    // override this method to have crowdsale of a specific mintable token.\n    function _setTokenContract(address _tokenAddress) internal {\n        crowdsaleToken = CrowdsaleToken(_tokenAddress);    // Opens a previously created crowdsale token\n        require(crowdsaleToken.owner() == msg.sender);       // Checks that the crowdsale creator is the owner of the Token\n    }\n\n    // fallback function can be used to buy tokens\n    function () public payable {\n        buyTokens(msg.sender);\n    }\n\n    // low level token purchase function\n    function buyTokens(address beneficiary) public payable {\n        require(beneficiary != 0x0);\n        require(validPurchase());\n\n        _buy(beneficiary, msg.value);\n    }\n\n    // Buy tokens depending on the amount of Ether sent\n    // Override this function to extend basic functionalities\n    // eg. provide different token price calculations\n    //     or use a non-mintable token, etc.\n    function _buy(address _to, uint256 _value) internal {\n        uint256 tokenAmount = crowdsaleToken.amountOfTokensToBuy(_value);       // calculate token amount to be created\n        crowdsaleToken.mint(_to, tokenAmount);\n\n        // update state\n        amountRaised += _value;\n        forwardFunds(_value);\n        TokenPurchase(msg.sender, _to, _value, tokenAmount);\n    }\n\n    // send ether to the fund collection wallet\n    // override to create custom fund forwarding mechanisms\n    function forwardFunds(uint256 _value) internal {\n        wallet.transfer(_value);\n    }\n\n    // @return true if the transaction can buy tokens\n    function validPurchase() internal constant returns (bool) {\n        bool withinPeriod = now >= startTime && now <= endTime;\n        bool nonZeroPurchase = msg.value != 0;\n        return withinPeriod && nonZeroPurchase;\n    }\n\n    // @return true if crowdsale event has ended\n    function hasEnded() public constant returns (bool) {\n        return now > endTime;\n    }\n}\n",
  "sourcePath": "/Volumes/MacHDD/Andres/Documents/Projects/z.projects.nosync/react-solidity/contracts/Crowdsale-Basic.sol",
  "compiler": {
    "name": "solc",
    "version": "0.4.18+commit.9cf6e910.Emscripten.clang"
  },
  "schemaVersion": "1.0.1",
  "updatedAt": "2017-11-03T00:06:07.778Z",
  "contract_name": "Crowdsale",
  "unlinked_binary": "0x6060604052341561000f57600080fd5b6040516080806105e3833981016040528080519190602001805191906020018051919060200180519150505b4284101561004857600080fd5b8383101561005557600080fd5b600160a060020a038216151561006a57600080fd5b610080816401000000006103a76100af82021704565b6001849055600283905560038054600160a060020a031916600160a060020a0384161790555b5050505061015e565b60008054600160a060020a031916600160a060020a038381169190911780835533821692911690638da5cb5b90604051602001526040518163ffffffff167c0100000000000000000000000000000000000000000000000000000000028152600401602060405180830381600087803b151561012a57600080fd5b6102c65a03f1151561013b57600080fd5b50505060405180519050600160a060020a031614151561015a57600080fd5b5b50565b6104768061016d6000396000f300606060405236156100675763ffffffff60e060020a6000350416633197cbb68114610074578063521eb2731461009957806378e97925146100c85780637b3e5e7b146100ed578063ec8ac4d814610112578063ecb70fb714610128578063fa65dfac1461014f575b5b6100713361017e565b5b005b341561007f57600080fd5b6100876101b4565b60405190815260200160405180910390f35b34156100a457600080fd5b6100ac6101ba565b604051600160a060020a03909116815260200160405180910390f35b34156100d357600080fd5b6100876101c9565b60405190815260200160405180910390f35b34156100f857600080fd5b6100876101cf565b60405190815260200160405180910390f35b610071600160a060020a036004351661017e565b005b341561013357600080fd5b61013b6101d5565b604051901515815260200160405180910390f35b341561015a57600080fd5b6100ac6101de565b604051600160a060020a03909116815260200160405180910390f35b600160a060020a038116151561019357600080fd5b61019b6101ed565b15156101a657600080fd5b6101b0813461021e565b5b50565b60025481565b600354600160a060020a031681565b60015481565b60045481565b60025442115b90565b600054600160a060020a031681565b6000806000600154421015801561020657506002544211155b9150503415158180156102165750805b92505b505090565b60008054600160a060020a0316634209b8d983836040516020015260405160e060020a63ffffffff84160281526004810191909152602401602060405180830381600087803b151561026f57600080fd5b6102c65a03f1151561028057600080fd5b505050604051805160008054919350600160a060020a0390911691506340c10f1990859084906040516020015260405160e060020a63ffffffff8516028152600160a060020a0390921660048301526024820152604401602060405180830381600087803b15156102f057600080fd5b6102c65a03f1151561030157600080fd5b50505060405180515050600480548301905561031c82610370565b82600160a060020a031633600160a060020a03167f623b3804fa71d67900d064613da8f94b9617215ee90799290593e1745087ad18848460405191825260208201526040908101905180910390a35b505050565b600354600160a060020a031681156108fc0282604051600060405180830381858888f1935050505015156101b057600080fd5b5b50565b6000805473ffffffffffffffffffffffffffffffffffffffff1916600160a060020a038381169190911780835533821692911690638da5cb5b90604051602001526040518163ffffffff1660e060020a028152600401602060405180830381600087803b151561041657600080fd5b6102c65a03f1151561042757600080fd5b50505060405180519050600160a060020a03161415156101b057600080fd5b5b505600a165627a7a7230582077f1c575377f2ee7e813e604a6332c5dbecd4a482e60dc8bc0302a564d2128710029",
  "schema_version": "0.0.5",
  "updated_at": 1512646965028
}