{
  "contractName": "CrowdsaleToken",
  "abi": [
    {
      "constant": true,
      "inputs": [],
      "name": "name",
      "outputs": [
        {
          "name": "",
          "type": "string"
        }
      ],
      "payable": false,
      "type": "function"
    },
    {
      "constant": false,
      "inputs": [
        {
          "name": "_spender",
          "type": "address"
        },
        {
          "name": "_value",
          "type": "uint256"
        }
      ],
      "name": "approve",
      "outputs": [
        {
          "name": "success",
          "type": "bool"
        }
      ],
      "payable": false,
      "type": "function"
    },
    {
      "constant": true,
      "inputs": [],
      "name": "totalSupply",
      "outputs": [
        {
          "name": "",
          "type": "uint256"
        }
      ],
      "payable": false,
      "type": "function"
    },
    {
      "constant": false,
      "inputs": [
        {
          "name": "_agentAddress",
          "type": "address"
        },
        {
          "name": "_approved",
          "type": "bool"
        }
      ],
      "name": "approveMintAgent",
      "outputs": [],
      "payable": false,
      "type": "function"
    },
    {
      "constant": false,
      "inputs": [
        {
          "name": "_from",
          "type": "address"
        },
        {
          "name": "_to",
          "type": "address"
        },
        {
          "name": "_value",
          "type": "uint256"
        }
      ],
      "name": "transferFrom",
      "outputs": [
        {
          "name": "success",
          "type": "bool"
        }
      ],
      "payable": false,
      "type": "function"
    },
    {
      "constant": true,
      "inputs": [],
      "name": "tokenPriceInWei",
      "outputs": [
        {
          "name": "",
          "type": "uint256"
        }
      ],
      "payable": false,
      "type": "function"
    },
    {
      "constant": true,
      "inputs": [],
      "name": "decimals",
      "outputs": [
        {
          "name": "",
          "type": "uint8"
        }
      ],
      "payable": false,
      "type": "function"
    },
    {
      "constant": false,
      "inputs": [
        {
          "name": "_receiver",
          "type": "address"
        },
        {
          "name": "_value",
          "type": "uint256"
        }
      ],
      "name": "mint",
      "outputs": [
        {
          "name": "success",
          "type": "bool"
        }
      ],
      "payable": false,
      "type": "function"
    },
    {
      "constant": true,
      "inputs": [
        {
          "name": "_valueInWei",
          "type": "uint256"
        }
      ],
      "name": "amountOfTokensToBuy",
      "outputs": [
        {
          "name": "amount",
          "type": "uint256"
        }
      ],
      "payable": false,
      "type": "function"
    },
    {
      "constant": false,
      "inputs": [
        {
          "name": "_value",
          "type": "uint256"
        }
      ],
      "name": "burn",
      "outputs": [
        {
          "name": "success",
          "type": "bool"
        }
      ],
      "payable": false,
      "type": "function"
    },
    {
      "constant": true,
      "inputs": [
        {
          "name": "",
          "type": "address"
        }
      ],
      "name": "mintAgents",
      "outputs": [
        {
          "name": "",
          "type": "bool"
        }
      ],
      "payable": false,
      "type": "function"
    },
    {
      "constant": false,
      "inputs": [],
      "name": "dispose",
      "outputs": [],
      "payable": false,
      "type": "function"
    },
    {
      "constant": true,
      "inputs": [
        {
          "name": "",
          "type": "address"
        }
      ],
      "name": "balanceOf",
      "outputs": [
        {
          "name": "",
          "type": "uint256"
        }
      ],
      "payable": false,
      "type": "function"
    },
    {
      "constant": true,
      "inputs": [
        {
          "name": "_amount",
          "type": "uint256"
        }
      ],
      "name": "valueOfTokensToSell",
      "outputs": [
        {
          "name": "valueInWei",
          "type": "uint256"
        }
      ],
      "payable": false,
      "type": "function"
    },
    {
      "constant": false,
      "inputs": [],
      "name": "disableMinting",
      "outputs": [],
      "payable": false,
      "type": "function"
    },
    {
      "constant": true,
      "inputs": [],
      "name": "tokenPrice",
      "outputs": [
        {
          "name": "",
          "type": "uint256"
        }
      ],
      "payable": false,
      "type": "function"
    },
    {
      "constant": true,
      "inputs": [],
      "name": "owner",
      "outputs": [
        {
          "name": "",
          "type": "address"
        }
      ],
      "payable": false,
      "type": "function"
    },
    {
      "constant": true,
      "inputs": [],
      "name": "symbol",
      "outputs": [
        {
          "name": "",
          "type": "string"
        }
      ],
      "payable": false,
      "type": "function"
    },
    {
      "constant": true,
      "inputs": [],
      "name": "etherPrice",
      "outputs": [
        {
          "name": "",
          "type": "uint256"
        }
      ],
      "payable": false,
      "type": "function"
    },
    {
      "constant": true,
      "inputs": [],
      "name": "mintingEnabled",
      "outputs": [
        {
          "name": "",
          "type": "bool"
        }
      ],
      "payable": false,
      "type": "function"
    },
    {
      "constant": false,
      "inputs": [],
      "name": "buy",
      "outputs": [
        {
          "name": "amount",
          "type": "uint256"
        }
      ],
      "payable": true,
      "type": "function"
    },
    {
      "constant": false,
      "inputs": [
        {
          "name": "_to",
          "type": "address"
        },
        {
          "name": "_value",
          "type": "uint256"
        }
      ],
      "name": "transfer",
      "outputs": [
        {
          "name": "success",
          "type": "bool"
        }
      ],
      "payable": false,
      "type": "function"
    },
    {
      "constant": true,
      "inputs": [
        {
          "name": "",
          "type": "address"
        }
      ],
      "name": "frozenAccount",
      "outputs": [
        {
          "name": "",
          "type": "bool"
        }
      ],
      "payable": false,
      "type": "function"
    },
    {
      "constant": true,
      "inputs": [
        {
          "name": "",
          "type": "address"
        },
        {
          "name": "",
          "type": "address"
        }
      ],
      "name": "allowance",
      "outputs": [
        {
          "name": "",
          "type": "uint256"
        }
      ],
      "payable": false,
      "type": "function"
    },
    {
      "constant": false,
      "inputs": [
        {
          "name": "_amount",
          "type": "uint256"
        }
      ],
      "name": "sell",
      "outputs": [
        {
          "name": "value",
          "type": "uint256"
        }
      ],
      "payable": false,
      "type": "function"
    },
    {
      "constant": false,
      "inputs": [
        {
          "name": "_target",
          "type": "address"
        },
        {
          "name": "_freeze",
          "type": "bool"
        }
      ],
      "name": "freezeAccount",
      "outputs": [
        {
          "name": "success",
          "type": "bool"
        }
      ],
      "payable": false,
      "type": "function"
    },
    {
      "constant": false,
      "inputs": [
        {
          "name": "_tokenPrice",
          "type": "uint256"
        },
        {
          "name": "_etherPrice",
          "type": "uint256"
        }
      ],
      "name": "updatePrices",
      "outputs": [],
      "payable": false,
      "type": "function"
    },
    {
      "constant": false,
      "inputs": [
        {
          "name": "_newOwner",
          "type": "address"
        }
      ],
      "name": "transferOwnership",
      "outputs": [
        {
          "name": "success",
          "type": "bool"
        }
      ],
      "payable": false,
      "type": "function"
    },
    {
      "inputs": [
        {
          "name": "_version",
          "type": "string"
        },
        {
          "name": "_name",
          "type": "string"
        },
        {
          "name": "_symbol",
          "type": "string"
        },
        {
          "name": "_decimals",
          "type": "uint8"
        },
        {
          "name": "_totalSupply",
          "type": "uint256"
        },
        {
          "name": "_tokenPrice",
          "type": "uint256"
        },
        {
          "name": "_etherPrice",
          "type": "uint256"
        }
      ],
      "payable": false,
      "type": "constructor"
    },
    {
      "payable": true,
      "type": "fallback"
    },
    {
      "anonymous": false,
      "inputs": [
        {
          "indexed": true,
          "name": "_owner",
          "type": "address"
        },
        {
          "indexed": false,
          "name": "_value",
          "type": "uint256"
        }
      ],
      "name": "Dispose",
      "type": "event"
    },
    {
      "anonymous": false,
      "inputs": [
        {
          "indexed": true,
          "name": "_target",
          "type": "address"
        },
        {
          "indexed": false,
          "name": "_frozen",
          "type": "bool"
        }
      ],
      "name": "FrozenFunds",
      "type": "event"
    },
    {
      "anonymous": false,
      "inputs": [
        {
          "indexed": true,
          "name": "_from",
          "type": "address"
        },
        {
          "indexed": false,
          "name": "_value",
          "type": "uint256"
        }
      ],
      "name": "Burn",
      "type": "event"
    },
    {
      "anonymous": false,
      "inputs": [
        {
          "indexed": true,
          "name": "_from",
          "type": "address"
        },
        {
          "indexed": false,
          "name": "_value",
          "type": "uint256"
        }
      ],
      "name": "Mint",
      "type": "event"
    },
    {
      "anonymous": false,
      "inputs": [
        {
          "indexed": true,
          "name": "_from",
          "type": "address"
        }
      ],
      "name": "MintDisabled",
      "type": "event"
    },
    {
      "anonymous": false,
      "inputs": [
        {
          "indexed": true,
          "name": "_agentAddress",
          "type": "address"
        },
        {
          "indexed": false,
          "name": "_approved",
          "type": "bool"
        }
      ],
      "name": "MintingAgent",
      "type": "event"
    },
    {
      "anonymous": false,
      "inputs": [
        {
          "indexed": true,
          "name": "_owner",
          "type": "address"
        },
        {
          "indexed": false,
          "name": "_tokenPrice",
          "type": "uint256"
        },
        {
          "indexed": false,
          "name": "_etherPrice",
          "type": "uint256"
        },
        {
          "indexed": false,
          "name": "_oneTokenInWei",
          "type": "uint256"
        }
      ],
      "name": "PriceUpdate",
      "type": "event"
    },
    {
      "anonymous": false,
      "inputs": [
        {
          "indexed": true,
          "name": "_owner",
          "type": "address"
        }
      ],
      "name": "OwnershipChange",
      "type": "event"
    },
    {
      "anonymous": false,
      "inputs": [
        {
          "indexed": true,
          "name": "_from",
          "type": "address"
        },
        {
          "indexed": true,
          "name": "_to",
          "type": "address"
        },
        {
          "indexed": false,
          "name": "_value",
          "type": "uint256"
        }
      ],
      "name": "Transfer",
      "type": "event"
    },
    {
      "anonymous": false,
      "inputs": [
        {
          "indexed": true,
          "name": "_owner",
          "type": "address"
        },
        {
          "indexed": true,
          "name": "_spender",
          "type": "address"
        },
        {
          "indexed": false,
          "name": "_value",
          "type": "uint256"
        }
      ],
      "name": "Approval",
      "type": "event"
    }
  ],
  "bytecode": "0x60606040526001600a60006101000a81548160ff02191690831515021790555034156200002b57600080fd5b6040516200206b3803806200206b833981016040528080518201919060200180518201919060200180518201919060200180519060200190919080519060200190919080519060200190919080519060200190919050508181888888888833600760006101000a81548173ffffffffffffffffffffffffffffffffffffffff021916908373ffffffffffffffffffffffffffffffffffffffff1602179055508460009080519060200190620000e292919062000219565b508360019080519060200190620000fb92919062000219565b5082600290805190602001906200011492919062000219565b5081600360006101000a81548160ff021916908360ff16021790555080600481905550600454600560003373ffffffffffffffffffffffffffffffffffffffff1673ffffffffffffffffffffffffffffffffffffffff168152602001908152602001600020819055505050505050816008819055508060098190555050506001600b6000600760009054906101000a900473ffffffffffffffffffffffffffffffffffffffff1673ffffffffffffffffffffffffffffffffffffffff1673ffffffffffffffffffffffffffffffffffffffff16815260200190815260200160002060006101000a81548160ff02191690831515021790555050505050505050620002c8565b828054600181600116156101000203166002900490600052602060002090601f016020900481019282601f106200025c57805160ff19168380011785556200028d565b828001600101855582156200028d579182015b828111156200028c5782518255916020019190600101906200026f565b5b5090506200029c9190620002a0565b5090565b620002c591905b80821115620002c1576000816000905550600101620002a7565b5090565b90565b611d9380620002d86000396000f30060606040526004361061016a576000357c0100000000000000000000000000000000000000000000000000000000900463ffffffff16806306fdde0314610175578063095ea7b31461020357806318160ddd1461025d5780631fdf071c1461028657806323b872dd146102ca5780632f8de81014610343578063313ce5671461036c57806340c10f191461039b5780634209b8d9146103f557806342966c681461042c57806342c1867b146104675780634c86659e146104b857806370a08231146104cd57806370c41eb61461051a5780637e5cd5c1146105515780637ff9b596146105665780638da5cb5b1461058f57806395d89b41146105e45780639e307955146106725780639fd6db121461069b578063a6f2ae3a146106c8578063a9059cbb146106e6578063b414d4b614610740578063dd62ed3e14610791578063e4849b32146107fd578063e724529c14610834578063ef88d7f014610890578063f2fde38b146108bc575b61017261090d565b50005b341561018057600080fd5b61018861099c565b6040518080602001828103825283818151815260200191508051906020019080838360005b838110156101c85780820151818401526020810190506101ad565b50505050905090810190601f1680156101f55780820380516001836020036101000a031916815260200191505b509250505060405180910390f35b341561020e57600080fd5b610243600480803573ffffffffffffffffffffffffffffffffffffffff16906020019091908035906020019091905050610a3a565b604051808215151515815260200191505060405180910390f35b341561026857600080fd5b610270610b2c565b6040518082815260200191505060405180910390f35b341561029157600080fd5b6102c8600480803573ffffffffffffffffffffffffffffffffffffffff169060200190919080351515906020019091905050610b32565b005b34156102d557600080fd5b610329600480803573ffffffffffffffffffffffffffffffffffffffff1690602001909190803573ffffffffffffffffffffffffffffffffffffffff16906020019091908035906020019091905050610c56565b604051808215151515815260200191505060405180910390f35b341561034e57600080fd5b610356610d83565b6040518082815260200191505060405180910390f35b341561037757600080fd5b61037f610da4565b604051808260ff1660ff16815260200191505060405180910390f35b34156103a657600080fd5b6103db600480803573ffffffffffffffffffffffffffffffffffffffff16906020019091908035906020019091905050610db7565b604051808215151515815260200191505060405180910390f35b341561040057600080fd5b6104166004808035906020019091905050610fe8565b6040518082815260200191505060405180910390f35b341561043757600080fd5b61044d600480803590602001909190505061101b565b604051808215151515815260200191505060405180910390f35b341561047257600080fd5b61049e600480803573ffffffffffffffffffffffffffffffffffffffff169060200190919050506111f5565b604051808215151515815260200191505060405180910390f35b34156104c357600080fd5b6104cb611215565b005b34156104d857600080fd5b610504600480803573ffffffffffffffffffffffffffffffffffffffff16906020019091905050611333565b6040518082815260200191505060405180910390f35b341561052557600080fd5b61053b600480803590602001909190505061134b565b6040518082815260200191505060405180910390f35b341561055c57600080fd5b61056461137e565b005b341561057157600080fd5b61057961145c565b6040518082815260200191505060405180910390f35b341561059a57600080fd5b6105a2611462565b604051808273ffffffffffffffffffffffffffffffffffffffff1673ffffffffffffffffffffffffffffffffffffffff16815260200191505060405180910390f35b34156105ef57600080fd5b6105f7611488565b6040518080602001828103825283818151815260200191508051906020019080838360005b8381101561063757808201518184015260208101905061061c565b50505050905090810190601f1680156106645780820380516001836020036101000a031916815260200191505b509250505060405180910390f35b341561067d57600080fd5b610685611526565b6040518082815260200191505060405180910390f35b34156106a657600080fd5b6106ae61152c565b604051808215151515815260200191505060405180910390f35b6106d061090d565b6040518082815260200191505060405180910390f35b34156106f157600080fd5b610726600480803573ffffffffffffffffffffffffffffffffffffffff1690602001909190803590602001909190505061153f565b604051808215151515815260200191505060405180910390f35b341561074b57600080fd5b610777600480803573ffffffffffffffffffffffffffffffffffffffff16906020019091905050611556565b604051808215151515815260200191505060405180910390f35b341561079c57600080fd5b6107e7600480803573ffffffffffffffffffffffffffffffffffffffff1690602001909190803573ffffffffffffffffffffffffffffffffffffffff16906020019091905050611576565b6040518082815260200191505060405180910390f35b341561080857600080fd5b61081e600480803590602001909190505061159b565b6040518082815260200191505060405180910390f35b341561083f57600080fd5b610876600480803573ffffffffffffffffffffffffffffffffffffffff169060200190919080351515906020019091905050611643565b604051808215151515815260200191505060405180910390f35b341561089b57600080fd5b6108ba6004808035906020019091908035906020019091905050611754565b005b34156108c757600080fd5b6108f3600480803573ffffffffffffffffffffffffffffffffffffffff1690602001909190505061182b565b604051808215151515815260200191505060405180910390f35b60008061091934610fe8565b9150610948600760009054906101000a900473ffffffffffffffffffffffffffffffffffffffff163384611992565b6109518261134b565b340390503373ffffffffffffffffffffffffffffffffffffffff166108fc829081150290604051600060405180830381858888f19350505050151561099557600080fd5b8191505090565b60018054600181600116156101000203166002900480601f016020809104026020016040519081016040528092919081815260200182805460018160011615610100020316600290048015610a325780601f10610a0757610100808354040283529160200191610a32565b820191906000526020600020905b815481529060010190602001808311610a1557829003601f168201915b505050505081565b600081600660003373ffffffffffffffffffffffffffffffffffffffff1673ffffffffffffffffffffffffffffffffffffffff16815260200190815260200160002060008573ffffffffffffffffffffffffffffffffffffffff1673ffffffffffffffffffffffffffffffffffffffff168152602001908152602001600020819055508273ffffffffffffffffffffffffffffffffffffffff163373ffffffffffffffffffffffffffffffffffffffff167f8c5be1e5ebec7d5bd14f71427d1e84f3dd0314c0f7b2291e5b200ac8c7c3b925846040518082815260200191505060405180910390a36001905092915050565b60045481565b600760009054906101000a900473ffffffffffffffffffffffffffffffffffffffff1673ffffffffffffffffffffffffffffffffffffffff163373ffffffffffffffffffffffffffffffffffffffff16141515610b8e57600080fd5b600a60009054906101000a900460ff161515610ba957600080fd5b80600b60008473ffffffffffffffffffffffffffffffffffffffff1673ffffffffffffffffffffffffffffffffffffffff16815260200190815260200160002060006101000a81548160ff0219169083151502179055508173ffffffffffffffffffffffffffffffffffffffff167fbc94e7e9982a271f30904f801e72649f8e386dd0cdb1c77251e88ea168e5b0d482604051808215151515815260200191505060405180910390a25050565b6000600660008573ffffffffffffffffffffffffffffffffffffffff1673ffffffffffffffffffffffffffffffffffffffff16815260200190815260200160002060003373ffffffffffffffffffffffffffffffffffffffff1673ffffffffffffffffffffffffffffffffffffffff168152602001908152602001600020548211151515610ce357600080fd5b81600660008673ffffffffffffffffffffffffffffffffffffffff1673ffffffffffffffffffffffffffffffffffffffff16815260200190815260200160002060003373ffffffffffffffffffffffffffffffffffffffff1673ffffffffffffffffffffffffffffffffffffffff16815260200190815260200160002060008282540392505081905550610d78848484611992565b600190509392505050565b6000600954600854670de0b6b3a764000002811515610d9e57fe5b04905090565b600360009054906101000a900460ff1681565b6000600b60003373ffffffffffffffffffffffffffffffffffffffff1673ffffffffffffffffffffffffffffffffffffffff16815260200190815260200160002060009054906101000a900460ff161515610e1157600080fd5b600a60009054906101000a900460ff161515610e2c57600080fd5b600560008473ffffffffffffffffffffffffffffffffffffffff1673ffffffffffffffffffffffffffffffffffffffff1681526020019081526020016000205482600560008673ffffffffffffffffffffffffffffffffffffffff1673ffffffffffffffffffffffffffffffffffffffff1681526020019081526020016000205401111515610eba57600080fd5b6004548260045401111515610ece57600080fd5b81600560008573ffffffffffffffffffffffffffffffffffffffff1673ffffffffffffffffffffffffffffffffffffffff16815260200190815260200160002060008282540192505081905550816004600082825401925050819055508273ffffffffffffffffffffffffffffffffffffffff167f0f6798a560793a54c3bcfe86a93cde1e73087d944c0ea20544137d4121396885836040518082815260200191505060405180910390a28273ffffffffffffffffffffffffffffffffffffffff163373ffffffffffffffffffffffffffffffffffffffff167fddf252ad1be2c89b69c2b068fc378daa952ba7f163c4a11628f55a4df523b3ef846040518082815260200191505060405180910390a36001905092915050565b6000610ff2610d83565b600360009054906101000a900460ff1660ff16600a0a830281151561101357fe5b049050919050565b6000600760009054906101000a900473ffffffffffffffffffffffffffffffffffffffff1673ffffffffffffffffffffffffffffffffffffffff163373ffffffffffffffffffffffffffffffffffffffff1614151561107957600080fd5b8160056000600760009054906101000a900473ffffffffffffffffffffffffffffffffffffffff1673ffffffffffffffffffffffffffffffffffffffff1673ffffffffffffffffffffffffffffffffffffffff16815260200190815260200160002054101515156110e957600080fd5b60008260045403101515156110fd57600080fd5b8160056000600760009054906101000a900473ffffffffffffffffffffffffffffffffffffffff1673ffffffffffffffffffffffffffffffffffffffff1673ffffffffffffffffffffffffffffffffffffffff1681526020019081526020016000206000828254039250508190555081600460008282540392505081905550600760009054906101000a900473ffffffffffffffffffffffffffffffffffffffff1673ffffffffffffffffffffffffffffffffffffffff167fcc16f5dbb4873280815c1ee09dbd06736cffcc184412cf7a71a0fdb75d397ca5836040518082815260200191505060405180910390a260019050919050565b600b6020528060005260406000206000915054906101000a900460ff1681565b600760009054906101000a900473ffffffffffffffffffffffffffffffffffffffff1673ffffffffffffffffffffffffffffffffffffffff163373ffffffffffffffffffffffffffffffffffffffff1614151561127157600080fd5b600760009054906101000a900473ffffffffffffffffffffffffffffffffffffffff1673ffffffffffffffffffffffffffffffffffffffff167f60914ce58216e2f221a19b0647ef2316bb3e20aaf38acaf9ee4290eacd9ff7123073ffffffffffffffffffffffffffffffffffffffff16316040518082815260200191505060405180910390a2600760009054906101000a900473ffffffffffffffffffffffffffffffffffffffff1673ffffffffffffffffffffffffffffffffffffffff16ff5b60056020528060005260406000206000915090505481565b6000600360009054906101000a900460ff1660ff16600a0a61136b610d83565b830281151561137657fe5b049050919050565b600760009054906101000a900473ffffffffffffffffffffffffffffffffffffffff1673ffffffffffffffffffffffffffffffffffffffff163373ffffffffffffffffffffffffffffffffffffffff161415156113da57600080fd5b6000600a60006101000a81548160ff021916908315150217905550600760009054906101000a900473ffffffffffffffffffffffffffffffffffffffff1673ffffffffffffffffffffffffffffffffffffffff167f36d6a1ec0680ab13c0d90e14a98001b4656a9fea6eaec542011fc19b12562fab60405160405180910390a2565b60085481565b600760009054906101000a900473ffffffffffffffffffffffffffffffffffffffff1681565b60028054600181600116156101000203166002900480601f01602080910402602001604051908101604052809291908181526020018280546001816001161561010002031660029004801561151e5780601f106114f35761010080835404028352916020019161151e565b820191906000526020600020905b81548152906001019060200180831161150157829003601f168201915b505050505081565b60095481565b600a60009054906101000a900460ff1681565b600061154c338484611992565b6001905092915050565b600c6020528060005260406000206000915054906101000a900460ff1681565b6006602052816000526040600020602052806000526040600020600091509150505481565b60006115a68261134b565b9050803073ffffffffffffffffffffffffffffffffffffffff1631101515156115ce57600080fd5b6115fb33600760009054906101000a900473ffffffffffffffffffffffffffffffffffffffff1684611992565b3373ffffffffffffffffffffffffffffffffffffffff166108fc829081150290604051600060405180830381858888f19350505050151561163b57600080fd5b809050919050565b6000600760009054906101000a900473ffffffffffffffffffffffffffffffffffffffff1673ffffffffffffffffffffffffffffffffffffffff163373ffffffffffffffffffffffffffffffffffffffff161415156116a157600080fd5b81600c60008573ffffffffffffffffffffffffffffffffffffffff1673ffffffffffffffffffffffffffffffffffffffff16815260200190815260200160002060006101000a81548160ff0219169083151502179055508273ffffffffffffffffffffffffffffffffffffffff167f48335238b4855f35377ed80f164e8c6f3c366e54ac00b96a6402d4a9814a03a583604051808215151515815260200191505060405180910390a26001905092915050565b600760009054906101000a900473ffffffffffffffffffffffffffffffffffffffff1673ffffffffffffffffffffffffffffffffffffffff163373ffffffffffffffffffffffffffffffffffffffff161415156117b057600080fd5b81600881905550806009819055503373ffffffffffffffffffffffffffffffffffffffff167f8647dab5101cbe18afb171756e9753802f9d66725bf2346b079b8b1a275e0116600854600954611804610d83565b60405180848152602001838152602001828152602001935050505060405180910390a25050565b6000600760009054906101000a900473ffffffffffffffffffffffffffffffffffffffff1673ffffffffffffffffffffffffffffffffffffffff163373ffffffffffffffffffffffffffffffffffffffff1614151561188957600080fd5b600060056000600760009054906101000a900473ffffffffffffffffffffffffffffffffffffffff1673ffffffffffffffffffffffffffffffffffffffff1673ffffffffffffffffffffffffffffffffffffffff16815260200190815260200160002054111561198257611981600760009054906101000a900473ffffffffffffffffffffffffffffffffffffffff168360056000600760009054906101000a900473ffffffffffffffffffffffffffffffffffffffff1673ffffffffffffffffffffffffffffffffffffffff1673ffffffffffffffffffffffffffffffffffffffff16815260200190815260200160002054611992565b5b61198b82611a54565b9050919050565b600c60008473ffffffffffffffffffffffffffffffffffffffff1673ffffffffffffffffffffffffffffffffffffffff16815260200190815260200160002060009054906101000a900460ff161515156119eb57600080fd5b600c60008373ffffffffffffffffffffffffffffffffffffffff1673ffffffffffffffffffffffffffffffffffffffff16815260200190815260200160002060009054906101000a900460ff16151515611a4457600080fd5b611a4f838383611b61565b505050565b6000600760009054906101000a900473ffffffffffffffffffffffffffffffffffffffff1673ffffffffffffffffffffffffffffffffffffffff163373ffffffffffffffffffffffffffffffffffffffff16141515611ab257600080fd5b81600760006101000a81548173ffffffffffffffffffffffffffffffffffffffff021916908373ffffffffffffffffffffffffffffffffffffffff160217905550600760009054906101000a900473ffffffffffffffffffffffffffffffffffffffff1673ffffffffffffffffffffffffffffffffffffffff167f83145fd658f708bac37424791a8ef3907324d87520701e5e966369c6ca583da360405160405180910390a260019050919050565b60008273ffffffffffffffffffffffffffffffffffffffff1614151515611b8757600080fd5b80600560008573ffffffffffffffffffffffffffffffffffffffff1673ffffffffffffffffffffffffffffffffffffffff1681526020019081526020016000205410151515611bd557600080fd5b600560008373ffffffffffffffffffffffffffffffffffffffff1673ffffffffffffffffffffffffffffffffffffffff1681526020019081526020016000205481600560008573ffffffffffffffffffffffffffffffffffffffff1673ffffffffffffffffffffffffffffffffffffffff1681526020019081526020016000205401111515611c6357600080fd5b80600560008573ffffffffffffffffffffffffffffffffffffffff1673ffffffffffffffffffffffffffffffffffffffff1681526020019081526020016000206000828254039250508190555080600560008473ffffffffffffffffffffffffffffffffffffffff1673ffffffffffffffffffffffffffffffffffffffff168152602001908152602001600020600082825401925050819055508173ffffffffffffffffffffffffffffffffffffffff168373ffffffffffffffffffffffffffffffffffffffff167fddf252ad1be2c89b69c2b068fc378daa952ba7f163c4a11628f55a4df523b3ef836040518082815260200191505060405180910390a35050505600a165627a7a7230582053aec44ac2faa788b84cc24b936496ff16bca46aceb8e98ca0195c55046955d10029",
  "source": "pragma solidity ^0.4.15;\n\nimport './Token-Tradeable.sol';\nimport './Token-Mintable.sol';\nimport './Token-Burnable.sol';\nimport './Token-Frozable.sol';\nimport './Utils-Disposable.sol';\n\ncontract CrowdsaleToken is Token, Tradeable, Mintable, Burnable, Frozable, Disposable {\n\n\t/* Initializes contract with its initial Token values, and its Basic and Crowdsale properties */\n\tfunction CrowdsaleToken(\n\t\tstring _version, string _name, string _symbol, uint8  _decimals, uint256 _totalSupply,\n\t\tuint256 _tokenPrice, uint256 _etherPrice\n\t) public Token (\n\t\t_version, _name, _symbol, _decimals, _totalSupply\n\t) Tradeable (\n\t\t_tokenPrice, _etherPrice\n\t) {}\n\n\t/* This unnamed function is called whenever someone tries to send ether to the contract */\n\tfunction () public payable {\n    buy();\n  }\n\n\t// TODO: This could be implemented within an Transferable contract\n  // Overrides ownership transfer to also give all tokens to crowdsale owner\n\tfunction transferOwnership(address _newOwner) public onlyOwner returns (bool success) {\n\t\tif (balanceOf[owner] > 0) {\n\t\t\t_transfer(owner, _newOwner, balanceOf[owner]);\n\t\t}\n\t\treturn super.transferOwnership(_newOwner);\n\t}\n}\n",
  "sourcePath": "/Volumes/MacHDD/Andres/Documents/Projects/z.projects.nosync/react-solidity/contracts/Crowdsale-Token.sol",
  "compiler": {
    "name": "solc",
    "version": "0.4.18+commit.9cf6e910.Emscripten.clang"
  },
  "schemaVersion": "1.0.1",
  "updatedAt": "2017-11-03T00:06:07.766Z",
  "contract_name": "CrowdsaleToken",
  "unlinked_binary": "0x6060604052600a805460ff1916600117905534156200001d57600080fd5b6040516200138d3803806200138d833981016040528080518201919060200180518201919060200180518201919060200180519190602001805191906020018051919060200180519150505b5b81815b88888888885b5b60078054600160a060020a03191633600160a060020a03161790555b6000858051620000a592916020019062000148565b506001848051620000bb92916020019062000148565b506002838051620000d192916020019062000148565b506003805460ff191660ff8416179055600481905533600160a060020a031660009081526005602052604090208190555b5050506008849055505060098190555b5050600754600160a060020a03166000908152600b60205260409020805460ff191660011790555b5b50505050505050620001f2565b828054600181600116156101000203166002900490600052602060002090601f016020900481019282601f106200018b57805160ff1916838001178555620001bb565b82800160010185558215620001bb579182015b82811115620001bb5782518255916020019190600101906200019e565b5b50620001ca929150620001ce565b5090565b620001ef91905b80821115620001ca5760008155600101620001d5565b5090565b90565b61118b80620002026000396000f300606060405236156101675763ffffffff7c010000000000000000000000000000000000000000000000000000000060003504166306fdde038114610174578063095ea7b3146101ff57806318160ddd146102355780631fdf071c1461025a57806323b872dd146102805780632f8de810146102bc578063313ce567146102e157806340c10f191461030a5780634209b8d91461034057806342966c681461036857806342c1867b146103925780634c86659e146103c557806370a08231146103da57806370c41eb61461040b5780637e5cd5c1146104335780637ff9b596146104485780638da5cb5b1461046d57806395d89b411461049c5780639e307955146105275780639fd6db121461054c578063a6f2ae3a14610573578063a9059cbb1461058d578063b414d4b6146105c3578063dd62ed3e146105f6578063e4849b321461062d578063e724529c14610655578063ef88d7f01461068d578063f2fde38b146106a8575b5b6101706106db565b505b005b341561017f57600080fd5b610187610744565b60405160208082528190810183818151815260200191508051906020019080838360005b838110156101c45780820151818401525b6020016101ab565b50505050905090810190601f1680156101f15780820380516001836020036101000a031916815260200191505b509250505060405180910390f35b341561020a57600080fd5b610221600160a060020a03600435166024356107e2565b604051901515815260200160405180910390f35b341561024057600080fd5b61024861084f565b60405190815260200160405180910390f35b341561026557600080fd5b610172600160a060020a03600435166024351515610855565b005b341561028b57600080fd5b610221600160a060020a03600435811690602435166044356108e3565b604051901515815260200160405180910390f35b34156102c757600080fd5b61024861095b565b60405190815260200160405180910390f35b34156102ec57600080fd5b6102f461097d565b60405160ff909116815260200160405180910390f35b341561031557600080fd5b610221600160a060020a0360043516602435610986565b604051901515815260200160405180910390f35b341561034b57600080fd5b610248600435610aa2565b60405190815260200160405180910390f35b341561037357600080fd5b610221600435610ac9565b604051901515815260200160405180910390f35b341561039d57600080fd5b610221600160a060020a0360043516610b93565b604051901515815260200160405180910390f35b34156103d057600080fd5b610172610ba8565b005b34156103e557600080fd5b610248600160a060020a0360043516610c19565b60405190815260200160405180910390f35b341561041657600080fd5b610248600435610c2b565b60405190815260200160405180910390f35b341561043e57600080fd5b610172610c53565b005b341561045357600080fd5b610248610cb4565b60405190815260200160405180910390f35b341561047857600080fd5b610480610cba565b604051600160a060020a03909116815260200160405180910390f35b34156104a757600080fd5b610187610cc9565b60405160208082528190810183818151815260200191508051906020019080838360005b838110156101c45780820151818401525b6020016101ab565b50505050905090810190601f1680156101f15780820380516001836020036101000a031916815260200191505b509250505060405180910390f35b341561053257600080fd5b610248610d67565b60405190815260200160405180910390f35b341561055757600080fd5b610221610d6d565b604051901515815260200160405180910390f35b6102486106db565b60405190815260200160405180910390f35b341561059857600080fd5b610221600160a060020a0360043516602435610d76565b604051901515815260200160405180910390f35b34156105ce57600080fd5b610221600160a060020a0360043516610d8d565b604051901515815260200160405180910390f35b341561060157600080fd5b610248600160a060020a0360043581169060243516610da2565b60405190815260200160405180910390f35b341561063857600080fd5b610248600435610dbf565b60405190815260200160405180910390f35b341561066057600080fd5b610221600160a060020a03600435166024351515610e33565b604051901515815260200160405180910390f35b341561069857600080fd5b610172600435602435610eb7565b005b34156106b357600080fd5b610221600160a060020a0360043516610f3a565b604051901515815260200160405180910390f35b6000806106e734610aa2565b60075490925061070190600160a060020a03163384610fb3565b61070a82610c2b565b34039050600160a060020a03331681156108fc0282604051600060405180830381858888f19350505050151561073f57600080fd5b5b5090565b60018054600181600116156101000203166002900480601f0160208091040260200160405190810160405280929190818152602001828054600181600116156101000203166002900480156107da5780601f106107af576101008083540402835291602001916107da565b820191906000526020600020905b8154815290600101906020018083116107bd57829003601f168201915b505050505081565b600160a060020a03338116600081815260066020908152604080832094871680845294909152808220859055909291907f8c5be1e5ebec7d5bd14f71427d1e84f3dd0314c0f7b2291e5b200ac8c7c3b9259085905190815260200160405180910390a35060015b92915050565b60045481565b60075433600160a060020a0390811691161461087057600080fd5b600a5460ff16151561088157600080fd5b600160a060020a0382166000818152600b602052604090819020805460ff19168415151790557fbc94e7e9982a271f30904f801e72649f8e386dd0cdb1c77251e88ea168e5b0d490839051901515815260200160405180910390a25b5b5b5050565b600160a060020a0380841660009081526006602090815260408083203390941683529290529081205482111561091857600080fd5b600160a060020a0380851660009081526006602090815260408083203390941683529290522080548390039055610950848484610fb3565b5060015b9392505050565b6000600954600854670de0b6b3a76400000281151561097657fe5b0490505b90565b60035460ff1681565b600160a060020a0333166000908152600b602052604081205460ff1615156109ad57600080fd5b600a5460ff1615156109be57600080fd5b600160a060020a038316600090815260056020526040902054828101116109e457600080fd5b600454828101116109f457600080fd5b600160a060020a0383166000818152600560205260409081902080548501905560048054850190557f0f6798a560793a54c3bcfe86a93cde1e73087d944c0ea20544137d41213968859084905190815260200160405180910390a282600160a060020a031633600160a060020a03167fddf252ad1be2c89b69c2b068fc378daa952ba7f163c4a11628f55a4df523b3ef8460405190815260200160405180910390a35060015b5b5b92915050565b6000610aac61095b565b60035460ff16600a0a8302811515610ac057fe5b0490505b919050565b60075460009033600160a060020a03908116911614610ae757600080fd5b600754600160a060020a031660009081526005602052604090205482901015610b0f57600080fd5b6000826004540310151515610b2357600080fd5b60078054600160a060020a039081166000908152600560205260409081902080548690039055600480548690039055915416907fcc16f5dbb4873280815c1ee09dbd06736cffcc184412cf7a71a0fdb75d397ca59084905190815260200160405180910390a25060015b5b919050565b600b6020526000908152604090205460ff1681565b60075433600160a060020a03908116911614610bc357600080fd5b600754600160a060020a03908116907f60914ce58216e2f221a19b0647ef2316bb3e20aaf38acaf9ee4290eacd9ff7129030163160405190815260200160405180910390a2600754600160a060020a0316ff5b5b565b60056020526000908152604090205481565b60035460009060ff16600a0a610c3f61095b565b8302811515610ac057fe5b0490505b919050565b60075433600160a060020a03908116911614610c6e57600080fd5b600a805460ff19169055600754600160a060020a03167f36d6a1ec0680ab13c0d90e14a98001b4656a9fea6eaec542011fc19b12562fab60405160405180910390a25b5b565b60085481565b600754600160a060020a031681565b60028054600181600116156101000203166002900480601f0160208091040260200160405190810160405280929190818152602001828054600181600116156101000203166002900480156107da5780601f106107af576101008083540402835291602001916107da565b820191906000526020600020905b8154815290600101906020018083116107bd57829003601f168201915b505050505081565b60095481565b600a5460ff1681565b6000610d83338484610fb3565b5060015b92915050565b600c6020526000908152604090205460ff1681565b600660209081526000928352604080842090915290825290205481565b6000610dca82610c2b565b9050600160a060020a0330163181901015610de457600080fd5b600754610dfc903390600160a060020a031684610fb3565b600160a060020a03331681156108fc0282604051600060405180830381858888f193505050501515610ac457600080fd5b5b919050565b60075460009033600160a060020a03908116911614610e5157600080fd5b600160a060020a0383166000818152600c602052604090819020805460ff19168515151790557f48335238b4855f35377ed80f164e8c6f3c366e54ac00b96a6402d4a9814a03a590849051901515815260200160405180910390a25060015b5b92915050565b60075433600160a060020a03908116911614610ed257600080fd5b60088290556009819055600160a060020a0333167f8647dab5101cbe18afb171756e9753802f9d66725bf2346b079b8b1a275e01168383610f1161095b565b60405180848152602001838152602001828152602001935050505060405180910390a25b5b5050565b60075460009033600160a060020a03908116911614610f5857600080fd5b600754600160a060020a03166000908152600560205260408120541115610fa057600754600160a060020a0316600081815260056020526040902054610fa091908490610fb3565b5b610faa82611010565b90505b5b919050565b600160a060020a0383166000908152600c602052604090205460ff1615610fd957600080fd5b600160a060020a0382166000908152600c602052604090205460ff1615610fff57600080fd5b61100a838383611093565b5b505050565b60075460009033600160a060020a0390811691161461102e57600080fd5b6007805473ffffffffffffffffffffffffffffffffffffffff1916600160a060020a038481169190911791829055167f83145fd658f708bac37424791a8ef3907324d87520701e5e966369c6ca583da360405160405180910390a25060015b5b919050565b600160a060020a03821615156110a857600080fd5b600160a060020a038316600090815260056020526040902054819010156110ce57600080fd5b600160a060020a038216600090815260056020526040902054818101116110f457600080fd5b600160a060020a038084166000818152600560205260408082208054869003905592851680825290839020805485019055917fddf252ad1be2c89b69c2b068fc378daa952ba7f163c4a11628f55a4df523b3ef9084905190815260200160405180910390a35b5050505600a165627a7a72305820e1fe9e29917e3bc823e0e850d60b7d30845e9907746394c55b4090b8e726fae90029",
  "schema_version": "0.0.5",
  "updated_at": 1512646965029
}