{
  "contractName": "CrowdsaleVault",
  "abi": [
    {
      "constant": false,
      "inputs": [],
      "name": "withdraw",
      "outputs": [],
      "payable": false,
      "type": "function"
    },
    {
      "constant": false,
      "inputs": [],
      "name": "dispose",
      "outputs": [],
      "payable": false,
      "type": "function"
    },
    {
      "constant": true,
      "inputs": [],
      "name": "wallet",
      "outputs": [
        {
          "name": "",
          "type": "address"
        }
      ],
      "payable": false,
      "type": "function"
    },
    {
      "constant": false,
      "inputs": [],
      "name": "enableRefunds",
      "outputs": [],
      "payable": false,
      "type": "function"
    },
    {
      "constant": true,
      "inputs": [],
      "name": "owner",
      "outputs": [
        {
          "name": "",
          "type": "address"
        }
      ],
      "payable": false,
      "type": "function"
    },
    {
      "constant": true,
      "inputs": [],
      "name": "state",
      "outputs": [
        {
          "name": "",
          "type": "uint8"
        }
      ],
      "payable": false,
      "type": "function"
    },
    {
      "constant": true,
      "inputs": [
        {
          "name": "",
          "type": "address"
        }
      ],
      "name": "deposited",
      "outputs": [
        {
          "name": "",
          "type": "uint256"
        }
      ],
      "payable": false,
      "type": "function"
    },
    {
      "constant": false,
      "inputs": [
        {
          "name": "_newOwner",
          "type": "address"
        }
      ],
      "name": "transferOwnership",
      "outputs": [
        {
          "name": "success",
          "type": "bool"
        }
      ],
      "payable": false,
      "type": "function"
    },
    {
      "constant": false,
      "inputs": [
        {
          "name": "_investor",
          "type": "address"
        }
      ],
      "name": "deposit",
      "outputs": [],
      "payable": true,
      "type": "function"
    },
    {
      "constant": false,
      "inputs": [
        {
          "name": "_investor",
          "type": "address"
        }
      ],
      "name": "refund",
      "outputs": [],
      "payable": false,
      "type": "function"
    },
    {
      "inputs": [
        {
          "name": "_wallet",
          "type": "address"
        }
      ],
      "payable": false,
      "type": "constructor"
    },
    {
      "anonymous": false,
      "inputs": [],
      "name": "RefundsEnabled",
      "type": "event"
    },
    {
      "anonymous": false,
      "inputs": [
        {
          "indexed": true,
          "name": "_beneficiary",
          "type": "address"
        },
        {
          "indexed": false,
          "name": "_amount",
          "type": "uint256"
        }
      ],
      "name": "Withdraw",
      "type": "event"
    },
    {
      "anonymous": false,
      "inputs": [
        {
          "indexed": true,
          "name": "_beneficiary",
          "type": "address"
        },
        {
          "indexed": false,
          "name": "_amount",
          "type": "uint256"
        }
      ],
      "name": "Refund",
      "type": "event"
    },
    {
      "anonymous": false,
      "inputs": [
        {
          "indexed": true,
          "name": "_owner",
          "type": "address"
        },
        {
          "indexed": false,
          "name": "_value",
          "type": "uint256"
        }
      ],
      "name": "Dispose",
      "type": "event"
    },
    {
      "anonymous": false,
      "inputs": [
        {
          "indexed": true,
          "name": "_owner",
          "type": "address"
        }
      ],
      "name": "OwnershipChange",
      "type": "event"
    }
  ],
  "bytecode": "0x6060604052341561000f57600080fd5b604051602080610bc883398101604052808051906020019091905050336000806101000a81548173ffffffffffffffffffffffffffffffffffffffff021916908373ffffffffffffffffffffffffffffffffffffffff16021790555060008173ffffffffffffffffffffffffffffffffffffffff161415151561009157600080fd5b80600160006101000a81548173ffffffffffffffffffffffffffffffffffffffff021916908373ffffffffffffffffffffffffffffffffffffffff16021790555060008060146101000a81548160ff021916908360028111156100f057fe5b021790555050610ac3806101056000396000f3006060604052600436106100a4576000357c0100000000000000000000000000000000000000000000000000000000900463ffffffff1680633ccfd60b146100a95780634c86659e146100be578063521eb273146100d35780638c52dc41146101285780638da5cb5b1461013d578063c19d93fb14610192578063cb13cddb146101c9578063f2fde38b14610216578063f340fa0114610267578063fa89401a14610295575b600080fd5b34156100b457600080fd5b6100bc6102ce565b005b34156100c957600080fd5b6100d1610483565b005b34156100de57600080fd5b6100e661059e565b604051808273ffffffffffffffffffffffffffffffffffffffff1673ffffffffffffffffffffffffffffffffffffffff16815260200191505060405180910390f35b341561013357600080fd5b61013b6105c4565b005b341561014857600080fd5b6101506106a5565b604051808273ffffffffffffffffffffffffffffffffffffffff1673ffffffffffffffffffffffffffffffffffffffff16815260200191505060405180910390f35b341561019d57600080fd5b6101a56106ca565b604051808260028111156101b557fe5b60ff16815260200191505060405180910390f35b34156101d457600080fd5b610200600480803573ffffffffffffffffffffffffffffffffffffffff169060200190919050506106dd565b6040518082815260200191505060405180910390f35b341561022157600080fd5b61024d600480803573ffffffffffffffffffffffffffffffffffffffff169060200190919050506106f5565b604051808215151515815260200191505060405180910390f35b610293600480803573ffffffffffffffffffffffffffffffffffffffff169060200190919050506107ff565b005b34156102a057600080fd5b6102cc600480803573ffffffffffffffffffffffffffffffffffffffff169060200190919050506108de565b005b6000809054906101000a900473ffffffffffffffffffffffffffffffffffffffff1673ffffffffffffffffffffffffffffffffffffffff163373ffffffffffffffffffffffffffffffffffffffff1614151561032957600080fd5b6000600281111561033657fe5b600060149054906101000a900460ff16600281111561035157fe5b14151561035d57600080fd5b6002600060146101000a81548160ff0219169083600281111561037c57fe5b0217905550600160009054906101000a900473ffffffffffffffffffffffffffffffffffffffff1673ffffffffffffffffffffffffffffffffffffffff166108fc3073ffffffffffffffffffffffffffffffffffffffff16319081150290604051600060405180830381858888f1935050505015156103fa57600080fd5b600160009054906101000a900473ffffffffffffffffffffffffffffffffffffffff1673ffffffffffffffffffffffffffffffffffffffff167f884edad9ce6fa2440d8a54cc123490eb96d2768479d49ff9c7366125a94243643073ffffffffffffffffffffffffffffffffffffffff16316040518082815260200191505060405180910390a2565b6000809054906101000a900473ffffffffffffffffffffffffffffffffffffffff1673ffffffffffffffffffffffffffffffffffffffff163373ffffffffffffffffffffffffffffffffffffffff161415156104de57600080fd5b6000809054906101000a900473ffffffffffffffffffffffffffffffffffffffff1673ffffffffffffffffffffffffffffffffffffffff167f60914ce58216e2f221a19b0647ef2316bb3e20aaf38acaf9ee4290eacd9ff7123073ffffffffffffffffffffffffffffffffffffffff16316040518082815260200191505060405180910390a26000809054906101000a900473ffffffffffffffffffffffffffffffffffffffff1673ffffffffffffffffffffffffffffffffffffffff16ff5b600160009054906101000a900473ffffffffffffffffffffffffffffffffffffffff1681565b6000809054906101000a900473ffffffffffffffffffffffffffffffffffffffff1673ffffffffffffffffffffffffffffffffffffffff163373ffffffffffffffffffffffffffffffffffffffff1614151561061f57600080fd5b6000600281111561062c57fe5b600060149054906101000a900460ff16600281111561064757fe5b14151561065357600080fd5b6001600060146101000a81548160ff0219169083600281111561067257fe5b02179055507f599d8e5a83cffb867d051598c4d70e805d59802d8081c1c7d6dffc5b6aca2b8960405160405180910390a1565b6000809054906101000a900473ffffffffffffffffffffffffffffffffffffffff1681565b600060149054906101000a900460ff1681565b60026020528060005260406000206000915090505481565b60008060009054906101000a900473ffffffffffffffffffffffffffffffffffffffff1673ffffffffffffffffffffffffffffffffffffffff163373ffffffffffffffffffffffffffffffffffffffff1614151561075257600080fd5b816000806101000a81548173ffffffffffffffffffffffffffffffffffffffff021916908373ffffffffffffffffffffffffffffffffffffffff1602179055506000809054906101000a900473ffffffffffffffffffffffffffffffffffffffff1673ffffffffffffffffffffffffffffffffffffffff167f83145fd658f708bac37424791a8ef3907324d87520701e5e966369c6ca583da360405160405180910390a260019050919050565b6000809054906101000a900473ffffffffffffffffffffffffffffffffffffffff1673ffffffffffffffffffffffffffffffffffffffff163373ffffffffffffffffffffffffffffffffffffffff1614151561085a57600080fd5b6000600281111561086757fe5b600060149054906101000a900460ff16600281111561088257fe5b14151561088e57600080fd5b34600260008373ffffffffffffffffffffffffffffffffffffffff1673ffffffffffffffffffffffffffffffffffffffff1681526020019081526020016000206000828254019250508190555050565b60008060009054906101000a900473ffffffffffffffffffffffffffffffffffffffff1673ffffffffffffffffffffffffffffffffffffffff163373ffffffffffffffffffffffffffffffffffffffff1614151561093b57600080fd5b6001600281111561094857fe5b600060149054906101000a900460ff16600281111561096357fe5b14151561096f57600080fd5b600260008373ffffffffffffffffffffffffffffffffffffffff1673ffffffffffffffffffffffffffffffffffffffff1681526020019081526020016000205490506000811115156109c057600080fd5b6000600260008473ffffffffffffffffffffffffffffffffffffffff1673ffffffffffffffffffffffffffffffffffffffff168152602001908152602001600020819055508173ffffffffffffffffffffffffffffffffffffffff166108fc829081150290604051600060405180830381858888f193505050501515610a4557600080fd5b8173ffffffffffffffffffffffffffffffffffffffff167fbb28353e4598c3b9199101a66e0989549b659a59a54d2c27fbb183f1932c8e6d826040518082815260200191505060405180910390a250505600a165627a7a7230582041e26a31aa2c1f220d668ef4685da975f0fcf9b955c540604e8bc0b4d2f0c00f0029",
  "source": "pragma solidity ^0.4.15;\n\nimport './Utils-Ownable.sol';\nimport './Utils-Disposable.sol';\n\n/**\n* @title RefundVault\n* @dev This contract is used for storing funds while a crowdsale\n* is in progress. Supports refunding the money if crowdsale fails,\n* and forwarding it if crowdsale is successful.\n*/\ncontract CrowdsaleVault is Ownable, Disposable {\n    enum State { Active, Refunding, Closed }\n\n    State public state;\n    address public wallet;\n    mapping (address => uint256) public deposited;\n\n    event RefundsEnabled();\n    event Withdraw(address indexed _beneficiary, uint256 _amount);\n    event Refund(address indexed _beneficiary, uint256 _amount);\n\n    function CrowdsaleVault(address _wallet) public {\n        require(_wallet != 0x0);\n        wallet = _wallet;\n        state = State.Active;\n    }\n\n    function deposit(address _investor) public onlyOwner payable {\n        require(state == State.Active);\n        deposited[_investor] += msg.value;\n    }\n\n    function enableRefunds() public onlyOwner {\n        require(state == State.Active);\n        state = State.Refunding;\n        RefundsEnabled();\n    }\n\n    function refund(address _investor) public onlyOwner {\n        require(state == State.Refunding);\n        uint256 depositedValue = deposited[_investor];\n        require(depositedValue > 0);\n        deposited[_investor] = 0;\n        _investor.transfer(depositedValue);\n        Refund(_investor, depositedValue);\n    }\n\n    function withdraw() public onlyOwner {\n        require(state == State.Active);\n        state = State.Closed;\n        wallet.transfer(this.balance);\n        Withdraw(wallet, this.balance);\n    }\n}\n",
  "sourcePath": "/Volumes/MacHDD/Andres/Documents/Projects/z.projects.nosync/react-solidity/contracts/Crowdsale-Vault.sol",
  "compiler": {
    "name": "solc",
    "version": "0.4.18+commit.9cf6e910.Emscripten.clang"
  },
  "schemaVersion": "1.0.1",
  "updatedAt": "2017-11-03T00:06:07.771Z",
  "contract_name": "CrowdsaleVault",
  "unlinked_binary": "0x6060604052341561000f57600080fd5b604051602080610700833981016040528080519150505b5b60008054600160a060020a03191633600160a060020a03161790555b600160a060020a038116151561005857600080fd5b60018054600160a060020a031916600160a060020a03831617905560008054819060a060020a60ff02191674010000000000000000000000000000000000000000825b02179055505b505b61064e806100b26000396000f300606060405236156100a15763ffffffff7c01000000000000000000000000000000000000000000000000000000006000350416633ccfd60b81146100a65780634c86659e146100bb578063521eb273146100d05780638c52dc41146100ff5780638da5cb5b14610114578063c19d93fb14610143578063cb13cddb1461017a578063f2fde38b146101ab578063f340fa01146101de578063fa89401a146101f4575b600080fd5b34156100b157600080fd5b6100b9610215565b005b34156100c657600080fd5b6100b9610303565b005b34156100db57600080fd5b6100e3610374565b604051600160a060020a03909116815260200160405180910390f35b341561010a57600080fd5b6100b9610383565b005b341561011f57600080fd5b6100e361041f565b604051600160a060020a03909116815260200160405180910390f35b341561014e57600080fd5b61015661042e565b6040518082600281111561016657fe5b60ff16815260200191505060405180910390f35b341561018557600080fd5b610199600160a060020a036004351661043e565b60405190815260200160405180910390f35b34156101b657600080fd5b6101ca600160a060020a0360043516610450565b604051901515815260200160405180910390f35b6100b9600160a060020a03600435166104d1565b005b34156101ff57600080fd5b6100b9600160a060020a0360043516610534565b005b60005433600160a060020a0390811691161461023057600080fd5b60005b60005460a060020a900460ff16600281111561024b57fe5b1461025557600080fd5b600080546002919074ff0000000000000000000000000000000000000000191660a060020a835b0217905550600154600160a060020a039081169030163180156108fc0290604051600060405180830381858888f1935050505015156102ba57600080fd5b600154600160a060020a03908116907f884edad9ce6fa2440d8a54cc123490eb96d2768479d49ff9c7366125a94243649030163160405190815260200160405180910390a25b5b565b60005433600160a060020a0390811691161461031e57600080fd5b600054600160a060020a03908116907f60914ce58216e2f221a19b0647ef2316bb3e20aaf38acaf9ee4290eacd9ff7129030163160405190815260200160405180910390a2600054600160a060020a0316ff5b5b565b600154600160a060020a031681565b60005433600160a060020a0390811691161461039e57600080fd5b60005b60005460a060020a900460ff1660028111156103b957fe5b146103c357600080fd5b600080546001919074ff0000000000000000000000000000000000000000191660a060020a835b02179055507f599d8e5a83cffb867d051598c4d70e805d59802d8081c1c7d6dffc5b6aca2b8960405160405180910390a15b5b565b600054600160a060020a031681565b60005460a060020a900460ff1681565b60026020526000908152604090205481565b6000805433600160a060020a0390811691161461046c57600080fd5b6000805473ffffffffffffffffffffffffffffffffffffffff1916600160a060020a038481169190911791829055167f83145fd658f708bac37424791a8ef3907324d87520701e5e966369c6ca583da360405160405180910390a25060015b5b919050565b60005433600160a060020a039081169116146104ec57600080fd5b60005b60005460a060020a900460ff16600281111561050757fe5b1461051157600080fd5b600160a060020a03811660009081526002602052604090208054340190555b5b50565b6000805433600160a060020a0390811691161461055057600080fd5b60015b60005460a060020a900460ff16600281111561056b57fe5b1461057557600080fd5b50600160a060020a03811660009081526002602052604081205490811161059b57600080fd5b600160a060020a0382166000818152600260205260408082209190915582156108fc0290839051600060405180830381858888f1935050505015156105df57600080fd5b81600160a060020a03167fbb28353e4598c3b9199101a66e0989549b659a59a54d2c27fbb183f1932c8e6d8260405190815260200160405180910390a25b5b50505600a165627a7a7230582058ac93c4ffd191c56f9c045df7ff294c82bfc10fa33955ee387d1dd4960e5caf0029",
  "schema_version": "0.0.5",
  "updated_at": 1512646965025
}