{
  "contractName": "Disposable",
  "abi": [
    {
      "constant": false,
      "inputs": [],
      "name": "dispose",
      "outputs": [],
      "payable": false,
      "type": "function"
    },
    {
      "constant": true,
      "inputs": [],
      "name": "owner",
      "outputs": [
        {
          "name": "",
          "type": "address"
        }
      ],
      "payable": false,
      "type": "function"
    },
    {
      "constant": false,
      "inputs": [
        {
          "name": "_newOwner",
          "type": "address"
        }
      ],
      "name": "transferOwnership",
      "outputs": [
        {
          "name": "success",
          "type": "bool"
        }
      ],
      "payable": false,
      "type": "function"
    },
    {
      "anonymous": false,
      "inputs": [
        {
          "indexed": true,
          "name": "_owner",
          "type": "address"
        },
        {
          "indexed": false,
          "name": "_value",
          "type": "uint256"
        }
      ],
      "name": "Dispose",
      "type": "event"
    },
    {
      "anonymous": false,
      "inputs": [
        {
          "indexed": true,
          "name": "_owner",
          "type": "address"
        }
      ],
      "name": "OwnershipChange",
      "type": "event"
    }
  ],
  "bytecode": "0x6060604052336000806101000a81548173ffffffffffffffffffffffffffffffffffffffff021916908373ffffffffffffffffffffffffffffffffffffffff16021790555061038d806100536000396000f300606060405260043610610057576000357c0100000000000000000000000000000000000000000000000000000000900463ffffffff1680634c86659e1461005c5780638da5cb5b14610071578063f2fde38b146100c6575b600080fd5b341561006757600080fd5b61006f610117565b005b341561007c57600080fd5b610084610232565b604051808273ffffffffffffffffffffffffffffffffffffffff1673ffffffffffffffffffffffffffffffffffffffff16815260200191505060405180910390f35b34156100d157600080fd5b6100fd600480803573ffffffffffffffffffffffffffffffffffffffff16906020019091905050610257565b604051808215151515815260200191505060405180910390f35b6000809054906101000a900473ffffffffffffffffffffffffffffffffffffffff1673ffffffffffffffffffffffffffffffffffffffff163373ffffffffffffffffffffffffffffffffffffffff1614151561017257600080fd5b6000809054906101000a900473ffffffffffffffffffffffffffffffffffffffff1673ffffffffffffffffffffffffffffffffffffffff167f60914ce58216e2f221a19b0647ef2316bb3e20aaf38acaf9ee4290eacd9ff7123073ffffffffffffffffffffffffffffffffffffffff16316040518082815260200191505060405180910390a26000809054906101000a900473ffffffffffffffffffffffffffffffffffffffff1673ffffffffffffffffffffffffffffffffffffffff16ff5b6000809054906101000a900473ffffffffffffffffffffffffffffffffffffffff1681565b60008060009054906101000a900473ffffffffffffffffffffffffffffffffffffffff1673ffffffffffffffffffffffffffffffffffffffff163373ffffffffffffffffffffffffffffffffffffffff161415156102b457600080fd5b816000806101000a81548173ffffffffffffffffffffffffffffffffffffffff021916908373ffffffffffffffffffffffffffffffffffffffff1602179055506000809054906101000a900473ffffffffffffffffffffffffffffffffffffffff1673ffffffffffffffffffffffffffffffffffffffff167f83145fd658f708bac37424791a8ef3907324d87520701e5e966369c6ca583da360405160405180910390a2600190509190505600a165627a7a72305820b39a3e244ce89e36b36c8d87218aab16990603428380cb97ac253b388d2a8fef0029",
  "source": "pragma solidity ^0.4.15;\n\nimport './Utils-Ownable.sol';\n\ncontract Disposable is Ownable {\n\t// This notifies clients about the self destruction of the contract\n\t// and which account got the remaining balance on the contract\n\tevent Dispose(address indexed _owner, uint256 _value);\n\n\tfunction dispose() public onlyOwner {\n\t\tDispose(owner, this.balance);\n\t\tselfdestruct(owner);\n\t}\n}\n",
  "sourcePath": "/Volumes/MacHDD/Andres/Documents/Projects/z.projects.nosync/react-solidity/contracts/Utils-Disposable.sol",
  "compiler": {
    "name": "solc",
    "version": "0.4.18+commit.9cf6e910.Emscripten.clang"
  },
  "schemaVersion": "1.0.1",
  "updatedAt": "2017-11-03T00:06:07.836Z",
  "contract_name": "Disposable",
  "unlinked_binary": "0x60606040525b60008054600160a060020a03191633600160a060020a03161790555b5b6101f7806100316000396000f300606060405263ffffffff7c01000000000000000000000000000000000000000000000000000000006000350416634c86659e81146100535780638da5cb5b14610068578063f2fde38b14610097575b600080fd5b341561005e57600080fd5b6100666100ca565b005b341561007357600080fd5b61007b61013b565b604051600160a060020a03909116815260200160405180910390f35b34156100a257600080fd5b6100b6600160a060020a036004351661014a565b604051901515815260200160405180910390f35b60005433600160a060020a039081169116146100e557600080fd5b600054600160a060020a03908116907f60914ce58216e2f221a19b0647ef2316bb3e20aaf38acaf9ee4290eacd9ff7129030163160405190815260200160405180910390a2600054600160a060020a0316ff5b5b565b600054600160a060020a031681565b6000805433600160a060020a0390811691161461016657600080fd5b6000805473ffffffffffffffffffffffffffffffffffffffff1916600160a060020a038481169190911791829055167f83145fd658f708bac37424791a8ef3907324d87520701e5e966369c6ca583da360405160405180910390a25060015b5b9190505600a165627a7a723058207d2dc22f5b5ec9edbbe9ca0c39c9c5bfa058ede51d44e1a6eac1bc0955c58e970029",
  "schema_version": "0.0.5",
  "updated_at": 1512655652693
}