{
  "contractName": "Token",
  "abi": [
    {
      "constant": true,
      "inputs": [],
      "name": "name",
      "outputs": [
        {
          "name": "",
          "type": "string"
        }
      ],
      "payable": false,
      "type": "function"
    },
    {
      "constant": false,
      "inputs": [
        {
          "name": "_spender",
          "type": "address"
        },
        {
          "name": "_value",
          "type": "uint256"
        }
      ],
      "name": "approve",
      "outputs": [
        {
          "name": "success",
          "type": "bool"
        }
      ],
      "payable": false,
      "type": "function"
    },
    {
      "constant": true,
      "inputs": [],
      "name": "totalSupply",
      "outputs": [
        {
          "name": "",
          "type": "uint256"
        }
      ],
      "payable": false,
      "type": "function"
    },
    {
      "constant": false,
      "inputs": [
        {
          "name": "_from",
          "type": "address"
        },
        {
          "name": "_to",
          "type": "address"
        },
        {
          "name": "_value",
          "type": "uint256"
        }
      ],
      "name": "transferFrom",
      "outputs": [
        {
          "name": "success",
          "type": "bool"
        }
      ],
      "payable": false,
      "type": "function"
    },
    {
      "constant": true,
      "inputs": [],
      "name": "decimals",
      "outputs": [
        {
          "name": "",
          "type": "uint8"
        }
      ],
      "payable": false,
      "type": "function"
    },
    {
      "constant": true,
      "inputs": [
        {
          "name": "",
          "type": "address"
        }
      ],
      "name": "balanceOf",
      "outputs": [
        {
          "name": "",
          "type": "uint256"
        }
      ],
      "payable": false,
      "type": "function"
    },
    {
      "constant": true,
      "inputs": [],
      "name": "owner",
      "outputs": [
        {
          "name": "",
          "type": "address"
        }
      ],
      "payable": false,
      "type": "function"
    },
    {
      "constant": true,
      "inputs": [],
      "name": "symbol",
      "outputs": [
        {
          "name": "",
          "type": "string"
        }
      ],
      "payable": false,
      "type": "function"
    },
    {
      "constant": false,
      "inputs": [
        {
          "name": "_to",
          "type": "address"
        },
        {
          "name": "_value",
          "type": "uint256"
        }
      ],
      "name": "transfer",
      "outputs": [
        {
          "name": "success",
          "type": "bool"
        }
      ],
      "payable": false,
      "type": "function"
    },
    {
      "constant": true,
      "inputs": [
        {
          "name": "",
          "type": "address"
        },
        {
          "name": "",
          "type": "address"
        }
      ],
      "name": "allowance",
      "outputs": [
        {
          "name": "",
          "type": "uint256"
        }
      ],
      "payable": false,
      "type": "function"
    },
    {
      "constant": false,
      "inputs": [
        {
          "name": "_newOwner",
          "type": "address"
        }
      ],
      "name": "transferOwnership",
      "outputs": [
        {
          "name": "success",
          "type": "bool"
        }
      ],
      "payable": false,
      "type": "function"
    },
    {
      "inputs": [
        {
          "name": "_version",
          "type": "string"
        },
        {
          "name": "_name",
          "type": "string"
        },
        {
          "name": "_symbol",
          "type": "string"
        },
        {
          "name": "_decimals",
          "type": "uint8"
        },
        {
          "name": "_totalSupply",
          "type": "uint256"
        }
      ],
      "payable": false,
      "type": "constructor"
    },
    {
      "anonymous": false,
      "inputs": [
        {
          "indexed": true,
          "name": "_owner",
          "type": "address"
        }
      ],
      "name": "OwnershipChange",
      "type": "event"
    },
    {
      "anonymous": false,
      "inputs": [
        {
          "indexed": true,
          "name": "_from",
          "type": "address"
        },
        {
          "indexed": true,
          "name": "_to",
          "type": "address"
        },
        {
          "indexed": false,
          "name": "_value",
          "type": "uint256"
        }
      ],
      "name": "Transfer",
      "type": "event"
    },
    {
      "anonymous": false,
      "inputs": [
        {
          "indexed": true,
          "name": "_owner",
          "type": "address"
        },
        {
          "indexed": true,
          "name": "_spender",
          "type": "address"
        },
        {
          "indexed": false,
          "name": "_value",
          "type": "uint256"
        }
      ],
      "name": "Approval",
      "type": "event"
    }
  ],
  "bytecode": "0x6060604052341561000f57600080fd5b604051610ddf380380610ddf8339810160405280805182019190602001805182019190602001805182019190602001805190602001909190805190602001909190505033600760006101000a81548173ffffffffffffffffffffffffffffffffffffffff021916908373ffffffffffffffffffffffffffffffffffffffff16021790555084600090805190602001906100a992919061014a565b5083600190805190602001906100c092919061014a565b5082600290805190602001906100d792919061014a565b5081600360006101000a81548160ff021916908360ff16021790555080600481905550600454600560003373ffffffffffffffffffffffffffffffffffffffff1673ffffffffffffffffffffffffffffffffffffffff1681526020019081526020016000208190555050505050506101ef565b828054600181600116156101000203166002900490600052602060002090601f016020900481019282601f1061018b57805160ff19168380011785556101b9565b828001600101855582156101b9579182015b828111156101b857825182559160200191906001019061019d565b5b5090506101c691906101ca565b5090565b6101ec91905b808211156101e85760008160009055506001016101d0565b5090565b90565b610be1806101fe6000396000f3006060604052600436106100af576000357c0100000000000000000000000000000000000000000000000000000000900463ffffffff16806306fdde03146100b4578063095ea7b31461014257806318160ddd1461019c57806323b872dd146101c5578063313ce5671461023e57806370a082311461026d5780638da5cb5b146102ba57806395d89b411461030f578063a9059cbb1461039d578063dd62ed3e146103f7578063f2fde38b14610463575b600080fd5b34156100bf57600080fd5b6100c76104b4565b6040518080602001828103825283818151815260200191508051906020019080838360005b838110156101075780820151818401526020810190506100ec565b50505050905090810190601f1680156101345780820380516001836020036101000a031916815260200191505b509250505060405180910390f35b341561014d57600080fd5b610182600480803573ffffffffffffffffffffffffffffffffffffffff16906020019091908035906020019091905050610552565b604051808215151515815260200191505060405180910390f35b34156101a757600080fd5b6101af610644565b6040518082815260200191505060405180910390f35b34156101d057600080fd5b610224600480803573ffffffffffffffffffffffffffffffffffffffff1690602001909190803573ffffffffffffffffffffffffffffffffffffffff1690602001909190803590602001909190505061064a565b604051808215151515815260200191505060405180910390f35b341561024957600080fd5b610251610777565b604051808260ff1660ff16815260200191505060405180910390f35b341561027857600080fd5b6102a4600480803573ffffffffffffffffffffffffffffffffffffffff1690602001909190505061078a565b6040518082815260200191505060405180910390f35b34156102c557600080fd5b6102cd6107a2565b604051808273ffffffffffffffffffffffffffffffffffffffff1673ffffffffffffffffffffffffffffffffffffffff16815260200191505060405180910390f35b341561031a57600080fd5b6103226107c8565b6040518080602001828103825283818151815260200191508051906020019080838360005b83811015610362578082015181840152602081019050610347565b50505050905090810190601f16801561038f5780820380516001836020036101000a031916815260200191505b509250505060405180910390f35b34156103a857600080fd5b6103dd600480803573ffffffffffffffffffffffffffffffffffffffff16906020019091908035906020019091905050610866565b604051808215151515815260200191505060405180910390f35b341561040257600080fd5b61044d600480803573ffffffffffffffffffffffffffffffffffffffff1690602001909190803573ffffffffffffffffffffffffffffffffffffffff1690602001909190505061087d565b6040518082815260200191505060405180910390f35b341561046e57600080fd5b61049a600480803573ffffffffffffffffffffffffffffffffffffffff169060200190919050506108a2565b604051808215151515815260200191505060405180910390f35b60018054600181600116156101000203166002900480601f01602080910402602001604051908101604052809291908181526020018280546001816001161561010002031660029004801561054a5780601f1061051f5761010080835404028352916020019161054a565b820191906000526020600020905b81548152906001019060200180831161052d57829003601f168201915b505050505081565b600081600660003373ffffffffffffffffffffffffffffffffffffffff1673ffffffffffffffffffffffffffffffffffffffff16815260200190815260200160002060008573ffffffffffffffffffffffffffffffffffffffff1673ffffffffffffffffffffffffffffffffffffffff168152602001908152602001600020819055508273ffffffffffffffffffffffffffffffffffffffff163373ffffffffffffffffffffffffffffffffffffffff167f8c5be1e5ebec7d5bd14f71427d1e84f3dd0314c0f7b2291e5b200ac8c7c3b925846040518082815260200191505060405180910390a36001905092915050565b60045481565b6000600660008573ffffffffffffffffffffffffffffffffffffffff1673ffffffffffffffffffffffffffffffffffffffff16815260200190815260200160002060003373ffffffffffffffffffffffffffffffffffffffff1673ffffffffffffffffffffffffffffffffffffffff1681526020019081526020016000205482111515156106d757600080fd5b81600660008673ffffffffffffffffffffffffffffffffffffffff1673ffffffffffffffffffffffffffffffffffffffff16815260200190815260200160002060003373ffffffffffffffffffffffffffffffffffffffff1673ffffffffffffffffffffffffffffffffffffffff1681526020019081526020016000206000828254039250508190555061076c8484846109af565b600190509392505050565b600360009054906101000a900460ff1681565b60056020528060005260406000206000915090505481565b600760009054906101000a900473ffffffffffffffffffffffffffffffffffffffff1681565b60028054600181600116156101000203166002900480601f01602080910402602001604051908101604052809291908181526020018280546001816001161561010002031660029004801561085e5780601f106108335761010080835404028352916020019161085e565b820191906000526020600020905b81548152906001019060200180831161084157829003601f168201915b505050505081565b60006108733384846109af565b6001905092915050565b6006602052816000526040600020602052806000526040600020600091509150505481565b6000600760009054906101000a900473ffffffffffffffffffffffffffffffffffffffff1673ffffffffffffffffffffffffffffffffffffffff163373ffffffffffffffffffffffffffffffffffffffff1614151561090057600080fd5b81600760006101000a81548173ffffffffffffffffffffffffffffffffffffffff021916908373ffffffffffffffffffffffffffffffffffffffff160217905550600760009054906101000a900473ffffffffffffffffffffffffffffffffffffffff1673ffffffffffffffffffffffffffffffffffffffff167f83145fd658f708bac37424791a8ef3907324d87520701e5e966369c6ca583da360405160405180910390a260019050919050565b60008273ffffffffffffffffffffffffffffffffffffffff16141515156109d557600080fd5b80600560008573ffffffffffffffffffffffffffffffffffffffff1673ffffffffffffffffffffffffffffffffffffffff1681526020019081526020016000205410151515610a2357600080fd5b600560008373ffffffffffffffffffffffffffffffffffffffff1673ffffffffffffffffffffffffffffffffffffffff1681526020019081526020016000205481600560008573ffffffffffffffffffffffffffffffffffffffff1673ffffffffffffffffffffffffffffffffffffffff1681526020019081526020016000205401111515610ab157600080fd5b80600560008573ffffffffffffffffffffffffffffffffffffffff1673ffffffffffffffffffffffffffffffffffffffff1681526020019081526020016000206000828254039250508190555080600560008473ffffffffffffffffffffffffffffffffffffffff1673ffffffffffffffffffffffffffffffffffffffff168152602001908152602001600020600082825401925050819055508173ffffffffffffffffffffffffffffffffffffffff168373ffffffffffffffffffffffffffffffffffffffff167fddf252ad1be2c89b69c2b068fc378daa952ba7f163c4a11628f55a4df523b3ef836040518082815260200191505060405180910390a35050505600a165627a7a7230582069b497470196620c4b1166d46fa22f0e19eb54349c24f26f232a8b5266c9eb7f0029",
  "source": "pragma solidity ^0.4.15;\n\nimport './Token-ERC20.sol';\nimport './Utils-Ownable.sol';\n\ncontract Token is ERC20, Ownable {\n\t/* Initializes contract with initial supply tokens to the creator of the contract */\n\tfunction Token(\n\t\tstring _version,\n\t\tstring _name,\n\t\tstring _symbol,\n\t\tuint8  _decimals,\n\t\tuint256 _totalSupply\n\t\t) public {\n\t\tversion = _version;\t\t\t\t\t\t\t\t\t\t\t\t\t\t\t\t// Set the version for display purposes\n\t\tname = _name;                                   \t// Set the name for display purposes\n\t\tsymbol = _symbol;                               \t// Set the symbol for display purposes\n\t\tdecimals = _decimals;                           \t// Amount of decimals for display purposes\n\t\ttotalSupply = _totalSupply;                       // Update total supply\n\t\tbalanceOf[msg.sender] = totalSupply;              // Give the creator all initial tokens\n\t}\n\n\t/* Internal transfer, only can be called by this or inherited contracts  */\n\tfunction _transfer(address _from, address _to, uint _value) internal {\n\t\trequire (_to != 0x0);\t\t\t\t\t\t\t\t// Prevent transfer to 0x0 address. Use burn() instead\n\t\trequire (balanceOf[_from] >= _value);\t\t\t\t// Check if the sender has enough\n\t\trequire (balanceOf[_to] + _value > balanceOf[_to]); // Check for overflows\n\t\tbalanceOf[_from] -= _value;\t\t\t\t\t\t\t// Subtract from the sender\n\t\tbalanceOf[_to] += _value;\t\t\t\t\t\t\t// Add the same to the recipient\n\t\tTransfer(_from, _to, _value);\t\t\t\t\t\t// Notify anyone listening that this transfer took place\n\t}\n\n\t/// @notice Send `_value` tokens to `_to` from your account\n\t/// @param _to The address of the recipient\n\t/// @param _value the amount to send\n\tfunction transfer(address _to, uint256 _value) public returns (bool success) {\n\t\t_transfer(msg.sender, _to, _value);\n\t\treturn true;\n\t}\n\n\t/// @notice Send `_value` tokens to `_to` in behalf of `_from`\n\t/// @param _from The address of the sender\n\t/// @param _to The address of the recipient\n\t/// @param _value the amount to send\n\tfunction transferFrom(address _from, address _to, uint256 _value) public returns (bool success) {\n\t\trequire (_value <= allowance[_from][msg.sender]);\t  // Check allowance\n\t\tallowance[_from][msg.sender] -= _value;\n\t\t_transfer(_from, _to, _value);\n\t\treturn true;\n\t}\n\n\t/// @notice Allows `_spender` to spend no more than `_value` tokens in your behalf\n\t/// @param _spender The address authorized to spend\n\t/// @param _value the max amount they can spend\n\tfunction approve(address _spender, uint256 _value) public returns (bool success) {\n\t\tallowance[msg.sender][_spender] = _value;\n\t\tApproval(msg.sender, _spender, _value);\n\t\treturn true;\n\t}\n}\n",
  "sourcePath": "/Volumes/MacHDD/Andres/Documents/Projects/z.projects.nosync/react-solidity/contracts/Token-Basic.sol",
  "compiler": {
    "name": "solc",
    "version": "0.4.18+commit.9cf6e910.Emscripten.clang"
  },
  "schemaVersion": "1.0.1",
  "updatedAt": "2017-11-03T00:06:07.809Z",
  "contract_name": "Token",
  "unlinked_binary": "0x6060604052341561000f57600080fd5b60405161091438038061091483398101604052808051820191906020018051820191906020018051820191906020018051919060200180519150505b5b60078054600160a060020a03191633600160a060020a03161790555b600085805161007b9291602001906100de565b50600184805161008f9291602001906100de565b5060028380516100a39291602001906100de565b506003805460ff191660ff8416179055600481905533600160a060020a031660009081526005602052604090208190555b505050505061017e565b828054600181600116156101000203166002900490600052602060002090601f016020900481019282601f1061011f57805160ff191683800117855561014c565b8280016001018555821561014c579182015b8281111561014c578251825591602001919060010190610131565b5b5061015992915061015d565b5090565b61017b91905b808211156101595760008155600101610163565b5090565b90565b6107878061018d6000396000f300606060405236156100ac5763ffffffff7c010000000000000000000000000000000000000000000000000000000060003504166306fdde0381146100b1578063095ea7b31461013c57806318160ddd1461017257806323b872dd14610197578063313ce567146101d357806370a08231146101fc5780638da5cb5b1461022d57806395d89b411461025c578063a9059cbb146102e7578063dd62ed3e1461031d578063f2fde38b14610354575b600080fd5b34156100bc57600080fd5b6100c4610387565b60405160208082528190810183818151815260200191508051906020019080838360005b838110156101015780820151818401525b6020016100e8565b50505050905090810190601f16801561012e5780820380516001836020036101000a031916815260200191505b509250505060405180910390f35b341561014757600080fd5b61015e600160a060020a0360043516602435610425565b604051901515815260200160405180910390f35b341561017d57600080fd5b610185610492565b60405190815260200160405180910390f35b34156101a257600080fd5b61015e600160a060020a0360043581169060243516604435610498565b604051901515815260200160405180910390f35b34156101de57600080fd5b6101e6610510565b60405160ff909116815260200160405180910390f35b341561020757600080fd5b610185600160a060020a0360043516610519565b60405190815260200160405180910390f35b341561023857600080fd5b61024061052b565b604051600160a060020a03909116815260200160405180910390f35b341561026757600080fd5b6100c461053a565b60405160208082528190810183818151815260200191508051906020019080838360005b838110156101015780820151818401525b6020016100e8565b50505050905090810190601f16801561012e5780820380516001836020036101000a031916815260200191505b509250505060405180910390f35b34156102f257600080fd5b61015e600160a060020a03600435166024356105d8565b604051901515815260200160405180910390f35b341561032857600080fd5b610185600160a060020a03600435811690602435166105ef565b60405190815260200160405180910390f35b341561035f57600080fd5b61015e600160a060020a036004351661060c565b604051901515815260200160405180910390f35b60018054600181600116156101000203166002900480601f01602080910402602001604051908101604052809291908181526020018280546001816001161561010002031660029004801561041d5780601f106103f25761010080835404028352916020019161041d565b820191906000526020600020905b81548152906001019060200180831161040057829003601f168201915b505050505081565b600160a060020a03338116600081815260066020908152604080832094871680845294909152808220859055909291907f8c5be1e5ebec7d5bd14f71427d1e84f3dd0314c0f7b2291e5b200ac8c7c3b9259085905190815260200160405180910390a35060015b92915050565b60045481565b600160a060020a038084166000908152600660209081526040808320339094168352929052908120548211156104cd57600080fd5b600160a060020a038085166000908152600660209081526040808320339094168352929052208054839003905561050584848461068f565b5060015b9392505050565b60035460ff1681565b60056020526000908152604090205481565b600754600160a060020a031681565b60028054600181600116156101000203166002900480601f01602080910402602001604051908101604052809291908181526020018280546001816001161561010002031660029004801561041d5780601f106103f25761010080835404028352916020019161041d565b820191906000526020600020905b81548152906001019060200180831161040057829003601f168201915b505050505081565b60006105e533848461068f565b5060015b92915050565b600660209081526000928352604080842090915290825290205481565b60075460009033600160a060020a0390811691161461062a57600080fd5b6007805473ffffffffffffffffffffffffffffffffffffffff1916600160a060020a038481169190911791829055167f83145fd658f708bac37424791a8ef3907324d87520701e5e966369c6ca583da360405160405180910390a25060015b5b919050565b600160a060020a03821615156106a457600080fd5b600160a060020a038316600090815260056020526040902054819010156106ca57600080fd5b600160a060020a038216600090815260056020526040902054818101116106f057600080fd5b600160a060020a038084166000818152600560205260408082208054869003905592851680825290839020805485019055917fddf252ad1be2c89b69c2b068fc378daa952ba7f163c4a11628f55a4df523b3ef9084905190815260200160405180910390a35b5050505600a165627a7a72305820201f4e1dade1f50fb8847e020d8ab74e250cdf73c067eb39c13352f96c16624b0029",
  "schema_version": "0.0.5",
  "updated_at": 1512655652694
}