{
  "contractName": "TokenFiets",
  "abi": [
    {
      "constant": true,
      "inputs": [],
      "name": "name",
      "outputs": [
        {
          "name": "",
          "type": "string"
        }
      ],
      "payable": false,
      "type": "function"
    },
    {
      "constant": false,
      "inputs": [
        {
          "name": "_spender",
          "type": "address"
        },
        {
          "name": "_value",
          "type": "uint256"
        }
      ],
      "name": "approve",
      "outputs": [
        {
          "name": "success",
          "type": "bool"
        }
      ],
      "payable": false,
      "type": "function"
    },
    {
      "constant": true,
      "inputs": [],
      "name": "totalSupply",
      "outputs": [
        {
          "name": "",
          "type": "uint256"
        }
      ],
      "payable": false,
      "type": "function"
    },
    {
      "constant": false,
      "inputs": [
        {
          "name": "_agentAddress",
          "type": "address"
        },
        {
          "name": "_approved",
          "type": "bool"
        }
      ],
      "name": "approveMintAgent",
      "outputs": [],
      "payable": false,
      "type": "function"
    },
    {
      "constant": false,
      "inputs": [
        {
          "name": "_from",
          "type": "address"
        },
        {
          "name": "_to",
          "type": "address"
        },
        {
          "name": "_value",
          "type": "uint256"
        }
      ],
      "name": "transferFrom",
      "outputs": [
        {
          "name": "success",
          "type": "bool"
        }
      ],
      "payable": false,
      "type": "function"
    },
    {
      "constant": true,
      "inputs": [],
      "name": "tokenPriceInWei",
      "outputs": [
        {
          "name": "",
          "type": "uint256"
        }
      ],
      "payable": false,
      "type": "function"
    },
    {
      "constant": true,
      "inputs": [],
      "name": "decimals",
      "outputs": [
        {
          "name": "",
          "type": "uint8"
        }
      ],
      "payable": false,
      "type": "function"
    },
    {
      "constant": false,
      "inputs": [
        {
          "name": "_receiver",
          "type": "address"
        },
        {
          "name": "_value",
          "type": "uint256"
        }
      ],
      "name": "mint",
      "outputs": [
        {
          "name": "success",
          "type": "bool"
        }
      ],
      "payable": false,
      "type": "function"
    },
    {
      "constant": true,
      "inputs": [
        {
          "name": "_valueInWei",
          "type": "uint256"
        }
      ],
      "name": "amountOfTokensToBuy",
      "outputs": [
        {
          "name": "amount",
          "type": "uint256"
        }
      ],
      "payable": false,
      "type": "function"
    },
    {
      "constant": false,
      "inputs": [
        {
          "name": "_value",
          "type": "uint256"
        }
      ],
      "name": "burn",
      "outputs": [
        {
          "name": "success",
          "type": "bool"
        }
      ],
      "payable": false,
      "type": "function"
    },
    {
      "constant": true,
      "inputs": [
        {
          "name": "",
          "type": "address"
        }
      ],
      "name": "mintAgents",
      "outputs": [
        {
          "name": "",
          "type": "bool"
        }
      ],
      "payable": false,
      "type": "function"
    },
    {
      "constant": false,
      "inputs": [],
      "name": "dispose",
      "outputs": [],
      "payable": false,
      "type": "function"
    },
    {
      "constant": true,
      "inputs": [
        {
          "name": "",
          "type": "address"
        }
      ],
      "name": "balanceOf",
      "outputs": [
        {
          "name": "",
          "type": "uint256"
        }
      ],
      "payable": false,
      "type": "function"
    },
    {
      "constant": true,
      "inputs": [
        {
          "name": "_amount",
          "type": "uint256"
        }
      ],
      "name": "valueOfTokensToSell",
      "outputs": [
        {
          "name": "valueInWei",
          "type": "uint256"
        }
      ],
      "payable": false,
      "type": "function"
    },
    {
      "constant": false,
      "inputs": [],
      "name": "disableMinting",
      "outputs": [],
      "payable": false,
      "type": "function"
    },
    {
      "constant": true,
      "inputs": [],
      "name": "tokenPrice",
      "outputs": [
        {
          "name": "",
          "type": "uint256"
        }
      ],
      "payable": false,
      "type": "function"
    },
    {
      "constant": true,
      "inputs": [],
      "name": "owner",
      "outputs": [
        {
          "name": "",
          "type": "address"
        }
      ],
      "payable": false,
      "type": "function"
    },
    {
      "constant": true,
      "inputs": [],
      "name": "symbol",
      "outputs": [
        {
          "name": "",
          "type": "string"
        }
      ],
      "payable": false,
      "type": "function"
    },
    {
      "constant": true,
      "inputs": [],
      "name": "etherPrice",
      "outputs": [
        {
          "name": "",
          "type": "uint256"
        }
      ],
      "payable": false,
      "type": "function"
    },
    {
      "constant": true,
      "inputs": [],
      "name": "mintingEnabled",
      "outputs": [
        {
          "name": "",
          "type": "bool"
        }
      ],
      "payable": false,
      "type": "function"
    },
    {
      "constant": false,
      "inputs": [],
      "name": "buy",
      "outputs": [
        {
          "name": "amount",
          "type": "uint256"
        }
      ],
      "payable": true,
      "type": "function"
    },
    {
      "constant": false,
      "inputs": [
        {
          "name": "_to",
          "type": "address"
        },
        {
          "name": "_value",
          "type": "uint256"
        }
      ],
      "name": "transfer",
      "outputs": [
        {
          "name": "success",
          "type": "bool"
        }
      ],
      "payable": false,
      "type": "function"
    },
    {
      "constant": true,
      "inputs": [
        {
          "name": "",
          "type": "address"
        }
      ],
      "name": "frozenAccount",
      "outputs": [
        {
          "name": "",
          "type": "bool"
        }
      ],
      "payable": false,
      "type": "function"
    },
    {
      "constant": true,
      "inputs": [
        {
          "name": "",
          "type": "address"
        },
        {
          "name": "",
          "type": "address"
        }
      ],
      "name": "allowance",
      "outputs": [
        {
          "name": "",
          "type": "uint256"
        }
      ],
      "payable": false,
      "type": "function"
    },
    {
      "constant": false,
      "inputs": [
        {
          "name": "_amount",
          "type": "uint256"
        }
      ],
      "name": "sell",
      "outputs": [
        {
          "name": "value",
          "type": "uint256"
        }
      ],
      "payable": false,
      "type": "function"
    },
    {
      "constant": false,
      "inputs": [
        {
          "name": "_target",
          "type": "address"
        },
        {
          "name": "_freeze",
          "type": "bool"
        }
      ],
      "name": "freezeAccount",
      "outputs": [
        {
          "name": "success",
          "type": "bool"
        }
      ],
      "payable": false,
      "type": "function"
    },
    {
      "constant": false,
      "inputs": [
        {
          "name": "_tokenPrice",
          "type": "uint256"
        },
        {
          "name": "_etherPrice",
          "type": "uint256"
        }
      ],
      "name": "updatePrices",
      "outputs": [],
      "payable": false,
      "type": "function"
    },
    {
      "constant": false,
      "inputs": [
        {
          "name": "_newOwner",
          "type": "address"
        }
      ],
      "name": "transferOwnership",
      "outputs": [
        {
          "name": "success",
          "type": "bool"
        }
      ],
      "payable": false,
      "type": "function"
    },
    {
      "inputs": [],
      "payable": false,
      "type": "constructor"
    },
    {
      "payable": true,
      "type": "fallback"
    },
    {
      "anonymous": false,
      "inputs": [
        {
          "indexed": true,
          "name": "_owner",
          "type": "address"
        },
        {
          "indexed": false,
          "name": "_value",
          "type": "uint256"
        }
      ],
      "name": "Dispose",
      "type": "event"
    },
    {
      "anonymous": false,
      "inputs": [
        {
          "indexed": true,
          "name": "_target",
          "type": "address"
        },
        {
          "indexed": false,
          "name": "_frozen",
          "type": "bool"
        }
      ],
      "name": "FrozenFunds",
      "type": "event"
    },
    {
      "anonymous": false,
      "inputs": [
        {
          "indexed": true,
          "name": "_from",
          "type": "address"
        },
        {
          "indexed": false,
          "name": "_value",
          "type": "uint256"
        }
      ],
      "name": "Burn",
      "type": "event"
    },
    {
      "anonymous": false,
      "inputs": [
        {
          "indexed": true,
          "name": "_from",
          "type": "address"
        },
        {
          "indexed": false,
          "name": "_value",
          "type": "uint256"
        }
      ],
      "name": "Mint",
      "type": "event"
    },
    {
      "anonymous": false,
      "inputs": [
        {
          "indexed": true,
          "name": "_from",
          "type": "address"
        }
      ],
      "name": "MintDisabled",
      "type": "event"
    },
    {
      "anonymous": false,
      "inputs": [
        {
          "indexed": true,
          "name": "_agentAddress",
          "type": "address"
        },
        {
          "indexed": false,
          "name": "_approved",
          "type": "bool"
        }
      ],
      "name": "MintingAgent",
      "type": "event"
    },
    {
      "anonymous": false,
      "inputs": [
        {
          "indexed": true,
          "name": "_owner",
          "type": "address"
        },
        {
          "indexed": false,
          "name": "_tokenPrice",
          "type": "uint256"
        },
        {
          "indexed": false,
          "name": "_etherPrice",
          "type": "uint256"
        },
        {
          "indexed": false,
          "name": "_oneTokenInWei",
          "type": "uint256"
        }
      ],
      "name": "PriceUpdate",
      "type": "event"
    },
    {
      "anonymous": false,
      "inputs": [
        {
          "indexed": true,
          "name": "_owner",
          "type": "address"
        }
      ],
      "name": "OwnershipChange",
      "type": "event"
    },
    {
      "anonymous": false,
      "inputs": [
        {
          "indexed": true,
          "name": "_from",
          "type": "address"
        },
        {
          "indexed": true,
          "name": "_to",
          "type": "address"
        },
        {
          "indexed": false,
          "name": "_value",
          "type": "uint256"
        }
      ],
      "name": "Transfer",
      "type": "event"
    },
    {
      "anonymous": false,
      "inputs": [
        {
          "indexed": true,
          "name": "_owner",
          "type": "address"
        },
        {
          "indexed": true,
          "name": "_spender",
          "type": "address"
        },
        {
          "indexed": false,
          "name": "_value",
          "type": "uint256"
        }
      ],
      "name": "Approval",
      "type": "event"
    }
  ],
  "bytecode": "0x60606040526001600a60006101000a81548160ff0219169083151502179055506040805190810160405280600481526020017f302e313200000000000000000000000000000000000000000000000000000000815250600d90805190602001906200006c929190620004ce565b506040805190810160405280600581526020017f4669657473000000000000000000000000000000000000000000000000000000815250600e9080519060200190620000ba929190620004ce565b506040805190810160405280600481526020017ff09f9ab200000000000000000000000000000000000000000000000000000000815250600f908051906020019062000108929190620004ce565b506000601060006101000a81548160ff021916908360ff160217905550600060115560d260125561010e60135534156200014157600080fd5b600d8054600181600116156101000203166002900480601f016020809104026020016040519081016040528092919081815260200182805460018160011615610100020316600290048015620001db5780601f10620001af57610100808354040283529160200191620001db565b820191906000526020600020905b815481529060010190602001808311620001bd57829003601f168201915b5050505050600e8054600181600116156101000203166002900480601f0160208091040260200160405190810160405280929190818152602001828054600181600116156101000203166002900480156200027a5780601f106200024e576101008083540402835291602001916200027a565b820191906000526020600020905b8154815290600101906020018083116200025c57829003601f168201915b5050505050600f8054600181600116156101000203166002900480601f016020809104026020016040519081016040528092919081815260200182805460018160011615610100020316600290048015620003195780601f10620002ed5761010080835404028352916020019162000319565b820191906000526020600020905b815481529060010190602001808311620002fb57829003601f168201915b5050505050601060009054906101000a900460ff166011546012546013548181888888888833600760006101000a81548173ffffffffffffffffffffffffffffffffffffffff021916908373ffffffffffffffffffffffffffffffffffffffff160217905550846000908051906020019062000397929190620004ce565b508360019080519060200190620003b0929190620004ce565b508260029080519060200190620003c9929190620004ce565b5081600360006101000a81548160ff021916908360ff16021790555080600481905550600454600560003373ffffffffffffffffffffffffffffffffffffffff1673ffffffffffffffffffffffffffffffffffffffff168152602001908152602001600020819055505050505050816008819055508060098190555050506001600b6000600760009054906101000a900473ffffffffffffffffffffffffffffffffffffffff1673ffffffffffffffffffffffffffffffffffffffff1673ffffffffffffffffffffffffffffffffffffffff16815260200190815260200160002060006101000a81548160ff021916908315150217905550505050505050506200057d565b828054600181600116156101000203166002900490600052602060002090601f016020900481019282601f106200051157805160ff191683800117855562000542565b8280016001018555821562000542579182015b828111156200054157825182559160200191906001019062000524565b5b50905062000551919062000555565b5090565b6200057a91905b80821115620005765760008160009055506001016200055c565b5090565b90565b611d93806200058d6000396000f30060606040526004361061016a576000357c0100000000000000000000000000000000000000000000000000000000900463ffffffff16806306fdde0314610175578063095ea7b31461020357806318160ddd1461025d5780631fdf071c1461028657806323b872dd146102ca5780632f8de81014610343578063313ce5671461036c57806340c10f191461039b5780634209b8d9146103f557806342966c681461042c57806342c1867b146104675780634c86659e146104b857806370a08231146104cd57806370c41eb61461051a5780637e5cd5c1146105515780637ff9b596146105665780638da5cb5b1461058f57806395d89b41146105e45780639e307955146106725780639fd6db121461069b578063a6f2ae3a146106c8578063a9059cbb146106e6578063b414d4b614610740578063dd62ed3e14610791578063e4849b32146107fd578063e724529c14610834578063ef88d7f014610890578063f2fde38b146108bc575b61017261090d565b50005b341561018057600080fd5b61018861099c565b6040518080602001828103825283818151815260200191508051906020019080838360005b838110156101c85780820151818401526020810190506101ad565b50505050905090810190601f1680156101f55780820380516001836020036101000a031916815260200191505b509250505060405180910390f35b341561020e57600080fd5b610243600480803573ffffffffffffffffffffffffffffffffffffffff16906020019091908035906020019091905050610a3a565b604051808215151515815260200191505060405180910390f35b341561026857600080fd5b610270610b2c565b6040518082815260200191505060405180910390f35b341561029157600080fd5b6102c8600480803573ffffffffffffffffffffffffffffffffffffffff169060200190919080351515906020019091905050610b32565b005b34156102d557600080fd5b610329600480803573ffffffffffffffffffffffffffffffffffffffff1690602001909190803573ffffffffffffffffffffffffffffffffffffffff16906020019091908035906020019091905050610c56565b604051808215151515815260200191505060405180910390f35b341561034e57600080fd5b610356610d83565b6040518082815260200191505060405180910390f35b341561037757600080fd5b61037f610da4565b604051808260ff1660ff16815260200191505060405180910390f35b34156103a657600080fd5b6103db600480803573ffffffffffffffffffffffffffffffffffffffff16906020019091908035906020019091905050610db7565b604051808215151515815260200191505060405180910390f35b341561040057600080fd5b6104166004808035906020019091905050610fe8565b6040518082815260200191505060405180910390f35b341561043757600080fd5b61044d600480803590602001909190505061101b565b604051808215151515815260200191505060405180910390f35b341561047257600080fd5b61049e600480803573ffffffffffffffffffffffffffffffffffffffff169060200190919050506111f5565b604051808215151515815260200191505060405180910390f35b34156104c357600080fd5b6104cb611215565b005b34156104d857600080fd5b610504600480803573ffffffffffffffffffffffffffffffffffffffff16906020019091905050611333565b6040518082815260200191505060405180910390f35b341561052557600080fd5b61053b600480803590602001909190505061134b565b6040518082815260200191505060405180910390f35b341561055c57600080fd5b61056461137e565b005b341561057157600080fd5b61057961145c565b6040518082815260200191505060405180910390f35b341561059a57600080fd5b6105a2611462565b604051808273ffffffffffffffffffffffffffffffffffffffff1673ffffffffffffffffffffffffffffffffffffffff16815260200191505060405180910390f35b34156105ef57600080fd5b6105f7611488565b6040518080602001828103825283818151815260200191508051906020019080838360005b8381101561063757808201518184015260208101905061061c565b50505050905090810190601f1680156106645780820380516001836020036101000a031916815260200191505b509250505060405180910390f35b341561067d57600080fd5b610685611526565b6040518082815260200191505060405180910390f35b34156106a657600080fd5b6106ae61152c565b604051808215151515815260200191505060405180910390f35b6106d061090d565b6040518082815260200191505060405180910390f35b34156106f157600080fd5b610726600480803573ffffffffffffffffffffffffffffffffffffffff1690602001909190803590602001909190505061153f565b604051808215151515815260200191505060405180910390f35b341561074b57600080fd5b610777600480803573ffffffffffffffffffffffffffffffffffffffff16906020019091905050611556565b604051808215151515815260200191505060405180910390f35b341561079c57600080fd5b6107e7600480803573ffffffffffffffffffffffffffffffffffffffff1690602001909190803573ffffffffffffffffffffffffffffffffffffffff16906020019091905050611576565b6040518082815260200191505060405180910390f35b341561080857600080fd5b61081e600480803590602001909190505061159b565b6040518082815260200191505060405180910390f35b341561083f57600080fd5b610876600480803573ffffffffffffffffffffffffffffffffffffffff169060200190919080351515906020019091905050611643565b604051808215151515815260200191505060405180910390f35b341561089b57600080fd5b6108ba6004808035906020019091908035906020019091905050611754565b005b34156108c757600080fd5b6108f3600480803573ffffffffffffffffffffffffffffffffffffffff1690602001909190505061182b565b604051808215151515815260200191505060405180910390f35b60008061091934610fe8565b9150610948600760009054906101000a900473ffffffffffffffffffffffffffffffffffffffff163384611992565b6109518261134b565b340390503373ffffffffffffffffffffffffffffffffffffffff166108fc829081150290604051600060405180830381858888f19350505050151561099557600080fd5b8191505090565b60018054600181600116156101000203166002900480601f016020809104026020016040519081016040528092919081815260200182805460018160011615610100020316600290048015610a325780601f10610a0757610100808354040283529160200191610a32565b820191906000526020600020905b815481529060010190602001808311610a1557829003601f168201915b505050505081565b600081600660003373ffffffffffffffffffffffffffffffffffffffff1673ffffffffffffffffffffffffffffffffffffffff16815260200190815260200160002060008573ffffffffffffffffffffffffffffffffffffffff1673ffffffffffffffffffffffffffffffffffffffff168152602001908152602001600020819055508273ffffffffffffffffffffffffffffffffffffffff163373ffffffffffffffffffffffffffffffffffffffff167f8c5be1e5ebec7d5bd14f71427d1e84f3dd0314c0f7b2291e5b200ac8c7c3b925846040518082815260200191505060405180910390a36001905092915050565b60045481565b600760009054906101000a900473ffffffffffffffffffffffffffffffffffffffff1673ffffffffffffffffffffffffffffffffffffffff163373ffffffffffffffffffffffffffffffffffffffff16141515610b8e57600080fd5b600a60009054906101000a900460ff161515610ba957600080fd5b80600b60008473ffffffffffffffffffffffffffffffffffffffff1673ffffffffffffffffffffffffffffffffffffffff16815260200190815260200160002060006101000a81548160ff0219169083151502179055508173ffffffffffffffffffffffffffffffffffffffff167fbc94e7e9982a271f30904f801e72649f8e386dd0cdb1c77251e88ea168e5b0d482604051808215151515815260200191505060405180910390a25050565b6000600660008573ffffffffffffffffffffffffffffffffffffffff1673ffffffffffffffffffffffffffffffffffffffff16815260200190815260200160002060003373ffffffffffffffffffffffffffffffffffffffff1673ffffffffffffffffffffffffffffffffffffffff168152602001908152602001600020548211151515610ce357600080fd5b81600660008673ffffffffffffffffffffffffffffffffffffffff1673ffffffffffffffffffffffffffffffffffffffff16815260200190815260200160002060003373ffffffffffffffffffffffffffffffffffffffff1673ffffffffffffffffffffffffffffffffffffffff16815260200190815260200160002060008282540392505081905550610d78848484611992565b600190509392505050565b6000600954600854670de0b6b3a764000002811515610d9e57fe5b04905090565b600360009054906101000a900460ff1681565b6000600b60003373ffffffffffffffffffffffffffffffffffffffff1673ffffffffffffffffffffffffffffffffffffffff16815260200190815260200160002060009054906101000a900460ff161515610e1157600080fd5b600a60009054906101000a900460ff161515610e2c57600080fd5b600560008473ffffffffffffffffffffffffffffffffffffffff1673ffffffffffffffffffffffffffffffffffffffff1681526020019081526020016000205482600560008673ffffffffffffffffffffffffffffffffffffffff1673ffffffffffffffffffffffffffffffffffffffff1681526020019081526020016000205401111515610eba57600080fd5b6004548260045401111515610ece57600080fd5b81600560008573ffffffffffffffffffffffffffffffffffffffff1673ffffffffffffffffffffffffffffffffffffffff16815260200190815260200160002060008282540192505081905550816004600082825401925050819055508273ffffffffffffffffffffffffffffffffffffffff167f0f6798a560793a54c3bcfe86a93cde1e73087d944c0ea20544137d4121396885836040518082815260200191505060405180910390a28273ffffffffffffffffffffffffffffffffffffffff163373ffffffffffffffffffffffffffffffffffffffff167fddf252ad1be2c89b69c2b068fc378daa952ba7f163c4a11628f55a4df523b3ef846040518082815260200191505060405180910390a36001905092915050565b6000610ff2610d83565b600360009054906101000a900460ff1660ff16600a0a830281151561101357fe5b049050919050565b6000600760009054906101000a900473ffffffffffffffffffffffffffffffffffffffff1673ffffffffffffffffffffffffffffffffffffffff163373ffffffffffffffffffffffffffffffffffffffff1614151561107957600080fd5b8160056000600760009054906101000a900473ffffffffffffffffffffffffffffffffffffffff1673ffffffffffffffffffffffffffffffffffffffff1673ffffffffffffffffffffffffffffffffffffffff16815260200190815260200160002054101515156110e957600080fd5b60008260045403101515156110fd57600080fd5b8160056000600760009054906101000a900473ffffffffffffffffffffffffffffffffffffffff1673ffffffffffffffffffffffffffffffffffffffff1673ffffffffffffffffffffffffffffffffffffffff1681526020019081526020016000206000828254039250508190555081600460008282540392505081905550600760009054906101000a900473ffffffffffffffffffffffffffffffffffffffff1673ffffffffffffffffffffffffffffffffffffffff167fcc16f5dbb4873280815c1ee09dbd06736cffcc184412cf7a71a0fdb75d397ca5836040518082815260200191505060405180910390a260019050919050565b600b6020528060005260406000206000915054906101000a900460ff1681565b600760009054906101000a900473ffffffffffffffffffffffffffffffffffffffff1673ffffffffffffffffffffffffffffffffffffffff163373ffffffffffffffffffffffffffffffffffffffff1614151561127157600080fd5b600760009054906101000a900473ffffffffffffffffffffffffffffffffffffffff1673ffffffffffffffffffffffffffffffffffffffff167f60914ce58216e2f221a19b0647ef2316bb3e20aaf38acaf9ee4290eacd9ff7123073ffffffffffffffffffffffffffffffffffffffff16316040518082815260200191505060405180910390a2600760009054906101000a900473ffffffffffffffffffffffffffffffffffffffff1673ffffffffffffffffffffffffffffffffffffffff16ff5b60056020528060005260406000206000915090505481565b6000600360009054906101000a900460ff1660ff16600a0a61136b610d83565b830281151561137657fe5b049050919050565b600760009054906101000a900473ffffffffffffffffffffffffffffffffffffffff1673ffffffffffffffffffffffffffffffffffffffff163373ffffffffffffffffffffffffffffffffffffffff161415156113da57600080fd5b6000600a60006101000a81548160ff021916908315150217905550600760009054906101000a900473ffffffffffffffffffffffffffffffffffffffff1673ffffffffffffffffffffffffffffffffffffffff167f36d6a1ec0680ab13c0d90e14a98001b4656a9fea6eaec542011fc19b12562fab60405160405180910390a2565b60085481565b600760009054906101000a900473ffffffffffffffffffffffffffffffffffffffff1681565b60028054600181600116156101000203166002900480601f01602080910402602001604051908101604052809291908181526020018280546001816001161561010002031660029004801561151e5780601f106114f35761010080835404028352916020019161151e565b820191906000526020600020905b81548152906001019060200180831161150157829003601f168201915b505050505081565b60095481565b600a60009054906101000a900460ff1681565b600061154c338484611992565b6001905092915050565b600c6020528060005260406000206000915054906101000a900460ff1681565b6006602052816000526040600020602052806000526040600020600091509150505481565b60006115a68261134b565b9050803073ffffffffffffffffffffffffffffffffffffffff1631101515156115ce57600080fd5b6115fb33600760009054906101000a900473ffffffffffffffffffffffffffffffffffffffff1684611992565b3373ffffffffffffffffffffffffffffffffffffffff166108fc829081150290604051600060405180830381858888f19350505050151561163b57600080fd5b809050919050565b6000600760009054906101000a900473ffffffffffffffffffffffffffffffffffffffff1673ffffffffffffffffffffffffffffffffffffffff163373ffffffffffffffffffffffffffffffffffffffff161415156116a157600080fd5b81600c60008573ffffffffffffffffffffffffffffffffffffffff1673ffffffffffffffffffffffffffffffffffffffff16815260200190815260200160002060006101000a81548160ff0219169083151502179055508273ffffffffffffffffffffffffffffffffffffffff167f48335238b4855f35377ed80f164e8c6f3c366e54ac00b96a6402d4a9814a03a583604051808215151515815260200191505060405180910390a26001905092915050565b600760009054906101000a900473ffffffffffffffffffffffffffffffffffffffff1673ffffffffffffffffffffffffffffffffffffffff163373ffffffffffffffffffffffffffffffffffffffff161415156117b057600080fd5b81600881905550806009819055503373ffffffffffffffffffffffffffffffffffffffff167f8647dab5101cbe18afb171756e9753802f9d66725bf2346b079b8b1a275e0116600854600954611804610d83565b60405180848152602001838152602001828152602001935050505060405180910390a25050565b6000600760009054906101000a900473ffffffffffffffffffffffffffffffffffffffff1673ffffffffffffffffffffffffffffffffffffffff163373ffffffffffffffffffffffffffffffffffffffff1614151561188957600080fd5b600060056000600760009054906101000a900473ffffffffffffffffffffffffffffffffffffffff1673ffffffffffffffffffffffffffffffffffffffff1673ffffffffffffffffffffffffffffffffffffffff16815260200190815260200160002054111561198257611981600760009054906101000a900473ffffffffffffffffffffffffffffffffffffffff168360056000600760009054906101000a900473ffffffffffffffffffffffffffffffffffffffff1673ffffffffffffffffffffffffffffffffffffffff1673ffffffffffffffffffffffffffffffffffffffff16815260200190815260200160002054611992565b5b61198b82611a54565b9050919050565b600c60008473ffffffffffffffffffffffffffffffffffffffff1673ffffffffffffffffffffffffffffffffffffffff16815260200190815260200160002060009054906101000a900460ff161515156119eb57600080fd5b600c60008373ffffffffffffffffffffffffffffffffffffffff1673ffffffffffffffffffffffffffffffffffffffff16815260200190815260200160002060009054906101000a900460ff16151515611a4457600080fd5b611a4f838383611b61565b505050565b6000600760009054906101000a900473ffffffffffffffffffffffffffffffffffffffff1673ffffffffffffffffffffffffffffffffffffffff163373ffffffffffffffffffffffffffffffffffffffff16141515611ab257600080fd5b81600760006101000a81548173ffffffffffffffffffffffffffffffffffffffff021916908373ffffffffffffffffffffffffffffffffffffffff160217905550600760009054906101000a900473ffffffffffffffffffffffffffffffffffffffff1673ffffffffffffffffffffffffffffffffffffffff167f83145fd658f708bac37424791a8ef3907324d87520701e5e966369c6ca583da360405160405180910390a260019050919050565b60008273ffffffffffffffffffffffffffffffffffffffff1614151515611b8757600080fd5b80600560008573ffffffffffffffffffffffffffffffffffffffff1673ffffffffffffffffffffffffffffffffffffffff1681526020019081526020016000205410151515611bd557600080fd5b600560008373ffffffffffffffffffffffffffffffffffffffff1673ffffffffffffffffffffffffffffffffffffffff1681526020019081526020016000205481600560008573ffffffffffffffffffffffffffffffffffffffff1673ffffffffffffffffffffffffffffffffffffffff1681526020019081526020016000205401111515611c6357600080fd5b80600560008573ffffffffffffffffffffffffffffffffffffffff1673ffffffffffffffffffffffffffffffffffffffff1681526020019081526020016000206000828254039250508190555080600560008473ffffffffffffffffffffffffffffffffffffffff1673ffffffffffffffffffffffffffffffffffffffff168152602001908152602001600020600082825401925050819055508173ffffffffffffffffffffffffffffffffffffffff168373ffffffffffffffffffffffffffffffffffffffff167fddf252ad1be2c89b69c2b068fc378daa952ba7f163c4a11628f55a4df523b3ef836040518082815260200191505060405180910390a35050505600a165627a7a72305820d82fa03040cc99f7a3824c48225742f65099795cdf3763c92239b34b401d79f50029",
  "source": "pragma solidity ^0.4.15;\n\nimport './Crowdsale-Token.sol';\n\ncontract TokenFiets is CrowdsaleToken {\n  // Crowdsale Token Properties\n\t// Basic Token Properties\n\tstring private _version = '0.12';\n\tstring private _name = 'Fiets';\n\tstring private _symbol = hex\"F09F9AB2\";\n\tuint8  private _decimals = 0;\n\tuint256 private _totalSupply = 0;\n\tuint256 _tokenPrice = 210;\n\tuint256 _etherPrice = 270;\n\n  function TokenFiets ()\n  CrowdsaleToken (\n    _version,\n  \t_name,\n  \t_symbol,\n    _decimals,\n  \t_totalSupply,\n  \t_tokenPrice,\n  \t_etherPrice\n  ) public {}\n}\n",
  "sourcePath": "/Volumes/MacHDD/Andres/Documents/Projects/z.projects.nosync/react-solidity/contracts/Deploy-Token-Fiets.sol",
  "compiler": {
    "name": "solc",
    "version": "0.4.18+commit.9cf6e910.Emscripten.clang"
  },
  "schemaVersion": "1.0.1",
  "updatedAt": "2017-11-03T00:08:51.671Z",
  "contract_name": "TokenFiets",
  "unlinked_binary": "0x60606040526001600a60006101000a81548160ff0219169083151502179055506040805190810160405280600481526020017f302e313200000000000000000000000000000000000000000000000000000000815250600d90805190602001906200006c929190620004ce565b506040805190810160405280600581526020017f4669657473000000000000000000000000000000000000000000000000000000815250600e9080519060200190620000ba929190620004ce565b506040805190810160405280600481526020017ff09f9ab200000000000000000000000000000000000000000000000000000000815250600f908051906020019062000108929190620004ce565b506000601060006101000a81548160ff021916908360ff160217905550600060115560d260125561010e60135534156200014157600080fd5b600d8054600181600116156101000203166002900480601f016020809104026020016040519081016040528092919081815260200182805460018160011615610100020316600290048015620001db5780601f10620001af57610100808354040283529160200191620001db565b820191906000526020600020905b815481529060010190602001808311620001bd57829003601f168201915b5050505050600e8054600181600116156101000203166002900480601f0160208091040260200160405190810160405280929190818152602001828054600181600116156101000203166002900480156200027a5780601f106200024e576101008083540402835291602001916200027a565b820191906000526020600020905b8154815290600101906020018083116200025c57829003601f168201915b5050505050600f8054600181600116156101000203166002900480601f016020809104026020016040519081016040528092919081815260200182805460018160011615610100020316600290048015620003195780601f10620002ed5761010080835404028352916020019162000319565b820191906000526020600020905b815481529060010190602001808311620002fb57829003601f168201915b5050505050601060009054906101000a900460ff166011546012546013548181888888888833600760006101000a81548173ffffffffffffffffffffffffffffffffffffffff021916908373ffffffffffffffffffffffffffffffffffffffff160217905550846000908051906020019062000397929190620004ce565b508360019080519060200190620003b0929190620004ce565b508260029080519060200190620003c9929190620004ce565b5081600360006101000a81548160ff021916908360ff16021790555080600481905550600454600560003373ffffffffffffffffffffffffffffffffffffffff1673ffffffffffffffffffffffffffffffffffffffff168152602001908152602001600020819055505050505050816008819055508060098190555050506001600b6000600760009054906101000a900473ffffffffffffffffffffffffffffffffffffffff1673ffffffffffffffffffffffffffffffffffffffff1673ffffffffffffffffffffffffffffffffffffffff16815260200190815260200160002060006101000a81548160ff021916908315150217905550505050505050506200057d565b828054600181600116156101000203166002900490600052602060002090601f016020900481019282601f106200051157805160ff191683800117855562000542565b8280016001018555821562000542579182015b828111156200054157825182559160200191906001019062000524565b5b50905062000551919062000555565b5090565b6200057a91905b80821115620005765760008160009055506001016200055c565b5090565b90565b611d93806200058d6000396000f30060606040526004361061016a576000357c0100000000000000000000000000000000000000000000000000000000900463ffffffff16806306fdde0314610175578063095ea7b31461020357806318160ddd1461025d5780631fdf071c1461028657806323b872dd146102ca5780632f8de81014610343578063313ce5671461036c57806340c10f191461039b5780634209b8d9146103f557806342966c681461042c57806342c1867b146104675780634c86659e146104b857806370a08231146104cd57806370c41eb61461051a5780637e5cd5c1146105515780637ff9b596146105665780638da5cb5b1461058f57806395d89b41146105e45780639e307955146106725780639fd6db121461069b578063a6f2ae3a146106c8578063a9059cbb146106e6578063b414d4b614610740578063dd62ed3e14610791578063e4849b32146107fd578063e724529c14610834578063ef88d7f014610890578063f2fde38b146108bc575b61017261090d565b50005b341561018057600080fd5b61018861099c565b6040518080602001828103825283818151815260200191508051906020019080838360005b838110156101c85780820151818401526020810190506101ad565b50505050905090810190601f1680156101f55780820380516001836020036101000a031916815260200191505b509250505060405180910390f35b341561020e57600080fd5b610243600480803573ffffffffffffffffffffffffffffffffffffffff16906020019091908035906020019091905050610a3a565b604051808215151515815260200191505060405180910390f35b341561026857600080fd5b610270610b2c565b6040518082815260200191505060405180910390f35b341561029157600080fd5b6102c8600480803573ffffffffffffffffffffffffffffffffffffffff169060200190919080351515906020019091905050610b32565b005b34156102d557600080fd5b610329600480803573ffffffffffffffffffffffffffffffffffffffff1690602001909190803573ffffffffffffffffffffffffffffffffffffffff16906020019091908035906020019091905050610c56565b604051808215151515815260200191505060405180910390f35b341561034e57600080fd5b610356610d83565b6040518082815260200191505060405180910390f35b341561037757600080fd5b61037f610da4565b604051808260ff1660ff16815260200191505060405180910390f35b34156103a657600080fd5b6103db600480803573ffffffffffffffffffffffffffffffffffffffff16906020019091908035906020019091905050610db7565b604051808215151515815260200191505060405180910390f35b341561040057600080fd5b6104166004808035906020019091905050610fe8565b6040518082815260200191505060405180910390f35b341561043757600080fd5b61044d600480803590602001909190505061101b565b604051808215151515815260200191505060405180910390f35b341561047257600080fd5b61049e600480803573ffffffffffffffffffffffffffffffffffffffff169060200190919050506111f5565b604051808215151515815260200191505060405180910390f35b34156104c357600080fd5b6104cb611215565b005b34156104d857600080fd5b610504600480803573ffffffffffffffffffffffffffffffffffffffff16906020019091905050611333565b6040518082815260200191505060405180910390f35b341561052557600080fd5b61053b600480803590602001909190505061134b565b6040518082815260200191505060405180910390f35b341561055c57600080fd5b61056461137e565b005b341561057157600080fd5b61057961145c565b6040518082815260200191505060405180910390f35b341561059a57600080fd5b6105a2611462565b604051808273ffffffffffffffffffffffffffffffffffffffff1673ffffffffffffffffffffffffffffffffffffffff16815260200191505060405180910390f35b34156105ef57600080fd5b6105f7611488565b6040518080602001828103825283818151815260200191508051906020019080838360005b8381101561063757808201518184015260208101905061061c565b50505050905090810190601f1680156106645780820380516001836020036101000a031916815260200191505b509250505060405180910390f35b341561067d57600080fd5b610685611526565b6040518082815260200191505060405180910390f35b34156106a657600080fd5b6106ae61152c565b604051808215151515815260200191505060405180910390f35b6106d061090d565b6040518082815260200191505060405180910390f35b34156106f157600080fd5b610726600480803573ffffffffffffffffffffffffffffffffffffffff1690602001909190803590602001909190505061153f565b604051808215151515815260200191505060405180910390f35b341561074b57600080fd5b610777600480803573ffffffffffffffffffffffffffffffffffffffff16906020019091905050611556565b604051808215151515815260200191505060405180910390f35b341561079c57600080fd5b6107e7600480803573ffffffffffffffffffffffffffffffffffffffff1690602001909190803573ffffffffffffffffffffffffffffffffffffffff16906020019091905050611576565b6040518082815260200191505060405180910390f35b341561080857600080fd5b61081e600480803590602001909190505061159b565b6040518082815260200191505060405180910390f35b341561083f57600080fd5b610876600480803573ffffffffffffffffffffffffffffffffffffffff169060200190919080351515906020019091905050611643565b604051808215151515815260200191505060405180910390f35b341561089b57600080fd5b6108ba6004808035906020019091908035906020019091905050611754565b005b34156108c757600080fd5b6108f3600480803573ffffffffffffffffffffffffffffffffffffffff1690602001909190505061182b565b604051808215151515815260200191505060405180910390f35b60008061091934610fe8565b9150610948600760009054906101000a900473ffffffffffffffffffffffffffffffffffffffff163384611992565b6109518261134b565b340390503373ffffffffffffffffffffffffffffffffffffffff166108fc829081150290604051600060405180830381858888f19350505050151561099557600080fd5b8191505090565b60018054600181600116156101000203166002900480601f016020809104026020016040519081016040528092919081815260200182805460018160011615610100020316600290048015610a325780601f10610a0757610100808354040283529160200191610a32565b820191906000526020600020905b815481529060010190602001808311610a1557829003601f168201915b505050505081565b600081600660003373ffffffffffffffffffffffffffffffffffffffff1673ffffffffffffffffffffffffffffffffffffffff16815260200190815260200160002060008573ffffffffffffffffffffffffffffffffffffffff1673ffffffffffffffffffffffffffffffffffffffff168152602001908152602001600020819055508273ffffffffffffffffffffffffffffffffffffffff163373ffffffffffffffffffffffffffffffffffffffff167f8c5be1e5ebec7d5bd14f71427d1e84f3dd0314c0f7b2291e5b200ac8c7c3b925846040518082815260200191505060405180910390a36001905092915050565b60045481565b600760009054906101000a900473ffffffffffffffffffffffffffffffffffffffff1673ffffffffffffffffffffffffffffffffffffffff163373ffffffffffffffffffffffffffffffffffffffff16141515610b8e57600080fd5b600a60009054906101000a900460ff161515610ba957600080fd5b80600b60008473ffffffffffffffffffffffffffffffffffffffff1673ffffffffffffffffffffffffffffffffffffffff16815260200190815260200160002060006101000a81548160ff0219169083151502179055508173ffffffffffffffffffffffffffffffffffffffff167fbc94e7e9982a271f30904f801e72649f8e386dd0cdb1c77251e88ea168e5b0d482604051808215151515815260200191505060405180910390a25050565b6000600660008573ffffffffffffffffffffffffffffffffffffffff1673ffffffffffffffffffffffffffffffffffffffff16815260200190815260200160002060003373ffffffffffffffffffffffffffffffffffffffff1673ffffffffffffffffffffffffffffffffffffffff168152602001908152602001600020548211151515610ce357600080fd5b81600660008673ffffffffffffffffffffffffffffffffffffffff1673ffffffffffffffffffffffffffffffffffffffff16815260200190815260200160002060003373ffffffffffffffffffffffffffffffffffffffff1673ffffffffffffffffffffffffffffffffffffffff16815260200190815260200160002060008282540392505081905550610d78848484611992565b600190509392505050565b6000600954600854670de0b6b3a764000002811515610d9e57fe5b04905090565b600360009054906101000a900460ff1681565b6000600b60003373ffffffffffffffffffffffffffffffffffffffff1673ffffffffffffffffffffffffffffffffffffffff16815260200190815260200160002060009054906101000a900460ff161515610e1157600080fd5b600a60009054906101000a900460ff161515610e2c57600080fd5b600560008473ffffffffffffffffffffffffffffffffffffffff1673ffffffffffffffffffffffffffffffffffffffff1681526020019081526020016000205482600560008673ffffffffffffffffffffffffffffffffffffffff1673ffffffffffffffffffffffffffffffffffffffff1681526020019081526020016000205401111515610eba57600080fd5b6004548260045401111515610ece57600080fd5b81600560008573ffffffffffffffffffffffffffffffffffffffff1673ffffffffffffffffffffffffffffffffffffffff16815260200190815260200160002060008282540192505081905550816004600082825401925050819055508273ffffffffffffffffffffffffffffffffffffffff167f0f6798a560793a54c3bcfe86a93cde1e73087d944c0ea20544137d4121396885836040518082815260200191505060405180910390a28273ffffffffffffffffffffffffffffffffffffffff163373ffffffffffffffffffffffffffffffffffffffff167fddf252ad1be2c89b69c2b068fc378daa952ba7f163c4a11628f55a4df523b3ef846040518082815260200191505060405180910390a36001905092915050565b6000610ff2610d83565b600360009054906101000a900460ff1660ff16600a0a830281151561101357fe5b049050919050565b6000600760009054906101000a900473ffffffffffffffffffffffffffffffffffffffff1673ffffffffffffffffffffffffffffffffffffffff163373ffffffffffffffffffffffffffffffffffffffff1614151561107957600080fd5b8160056000600760009054906101000a900473ffffffffffffffffffffffffffffffffffffffff1673ffffffffffffffffffffffffffffffffffffffff1673ffffffffffffffffffffffffffffffffffffffff16815260200190815260200160002054101515156110e957600080fd5b60008260045403101515156110fd57600080fd5b8160056000600760009054906101000a900473ffffffffffffffffffffffffffffffffffffffff1673ffffffffffffffffffffffffffffffffffffffff1673ffffffffffffffffffffffffffffffffffffffff1681526020019081526020016000206000828254039250508190555081600460008282540392505081905550600760009054906101000a900473ffffffffffffffffffffffffffffffffffffffff1673ffffffffffffffffffffffffffffffffffffffff167fcc16f5dbb4873280815c1ee09dbd06736cffcc184412cf7a71a0fdb75d397ca5836040518082815260200191505060405180910390a260019050919050565b600b6020528060005260406000206000915054906101000a900460ff1681565b600760009054906101000a900473ffffffffffffffffffffffffffffffffffffffff1673ffffffffffffffffffffffffffffffffffffffff163373ffffffffffffffffffffffffffffffffffffffff1614151561127157600080fd5b600760009054906101000a900473ffffffffffffffffffffffffffffffffffffffff1673ffffffffffffffffffffffffffffffffffffffff167f60914ce58216e2f221a19b0647ef2316bb3e20aaf38acaf9ee4290eacd9ff7123073ffffffffffffffffffffffffffffffffffffffff16316040518082815260200191505060405180910390a2600760009054906101000a900473ffffffffffffffffffffffffffffffffffffffff1673ffffffffffffffffffffffffffffffffffffffff16ff5b60056020528060005260406000206000915090505481565b6000600360009054906101000a900460ff1660ff16600a0a61136b610d83565b830281151561137657fe5b049050919050565b600760009054906101000a900473ffffffffffffffffffffffffffffffffffffffff1673ffffffffffffffffffffffffffffffffffffffff163373ffffffffffffffffffffffffffffffffffffffff161415156113da57600080fd5b6000600a60006101000a81548160ff021916908315150217905550600760009054906101000a900473ffffffffffffffffffffffffffffffffffffffff1673ffffffffffffffffffffffffffffffffffffffff167f36d6a1ec0680ab13c0d90e14a98001b4656a9fea6eaec542011fc19b12562fab60405160405180910390a2565b60085481565b600760009054906101000a900473ffffffffffffffffffffffffffffffffffffffff1681565b60028054600181600116156101000203166002900480601f01602080910402602001604051908101604052809291908181526020018280546001816001161561010002031660029004801561151e5780601f106114f35761010080835404028352916020019161151e565b820191906000526020600020905b81548152906001019060200180831161150157829003601f168201915b505050505081565b60095481565b600a60009054906101000a900460ff1681565b600061154c338484611992565b6001905092915050565b600c6020528060005260406000206000915054906101000a900460ff1681565b6006602052816000526040600020602052806000526040600020600091509150505481565b60006115a68261134b565b9050803073ffffffffffffffffffffffffffffffffffffffff1631101515156115ce57600080fd5b6115fb33600760009054906101000a900473ffffffffffffffffffffffffffffffffffffffff1684611992565b3373ffffffffffffffffffffffffffffffffffffffff166108fc829081150290604051600060405180830381858888f19350505050151561163b57600080fd5b809050919050565b6000600760009054906101000a900473ffffffffffffffffffffffffffffffffffffffff1673ffffffffffffffffffffffffffffffffffffffff163373ffffffffffffffffffffffffffffffffffffffff161415156116a157600080fd5b81600c60008573ffffffffffffffffffffffffffffffffffffffff1673ffffffffffffffffffffffffffffffffffffffff16815260200190815260200160002060006101000a81548160ff0219169083151502179055508273ffffffffffffffffffffffffffffffffffffffff167f48335238b4855f35377ed80f164e8c6f3c366e54ac00b96a6402d4a9814a03a583604051808215151515815260200191505060405180910390a26001905092915050565b600760009054906101000a900473ffffffffffffffffffffffffffffffffffffffff1673ffffffffffffffffffffffffffffffffffffffff163373ffffffffffffffffffffffffffffffffffffffff161415156117b057600080fd5b81600881905550806009819055503373ffffffffffffffffffffffffffffffffffffffff167f8647dab5101cbe18afb171756e9753802f9d66725bf2346b079b8b1a275e0116600854600954611804610d83565b60405180848152602001838152602001828152602001935050505060405180910390a25050565b6000600760009054906101000a900473ffffffffffffffffffffffffffffffffffffffff1673ffffffffffffffffffffffffffffffffffffffff163373ffffffffffffffffffffffffffffffffffffffff1614151561188957600080fd5b600060056000600760009054906101000a900473ffffffffffffffffffffffffffffffffffffffff1673ffffffffffffffffffffffffffffffffffffffff1673ffffffffffffffffffffffffffffffffffffffff16815260200190815260200160002054111561198257611981600760009054906101000a900473ffffffffffffffffffffffffffffffffffffffff168360056000600760009054906101000a900473ffffffffffffffffffffffffffffffffffffffff1673ffffffffffffffffffffffffffffffffffffffff1673ffffffffffffffffffffffffffffffffffffffff16815260200190815260200160002054611992565b5b61198b82611a54565b9050919050565b600c60008473ffffffffffffffffffffffffffffffffffffffff1673ffffffffffffffffffffffffffffffffffffffff16815260200190815260200160002060009054906101000a900460ff161515156119eb57600080fd5b600c60008373ffffffffffffffffffffffffffffffffffffffff1673ffffffffffffffffffffffffffffffffffffffff16815260200190815260200160002060009054906101000a900460ff16151515611a4457600080fd5b611a4f838383611b61565b505050565b6000600760009054906101000a900473ffffffffffffffffffffffffffffffffffffffff1673ffffffffffffffffffffffffffffffffffffffff163373ffffffffffffffffffffffffffffffffffffffff16141515611ab257600080fd5b81600760006101000a81548173ffffffffffffffffffffffffffffffffffffffff021916908373ffffffffffffffffffffffffffffffffffffffff160217905550600760009054906101000a900473ffffffffffffffffffffffffffffffffffffffff1673ffffffffffffffffffffffffffffffffffffffff167f83145fd658f708bac37424791a8ef3907324d87520701e5e966369c6ca583da360405160405180910390a260019050919050565b60008273ffffffffffffffffffffffffffffffffffffffff1614151515611b8757600080fd5b80600560008573ffffffffffffffffffffffffffffffffffffffff1673ffffffffffffffffffffffffffffffffffffffff1681526020019081526020016000205410151515611bd557600080fd5b600560008373ffffffffffffffffffffffffffffffffffffffff1673ffffffffffffffffffffffffffffffffffffffff1681526020019081526020016000205481600560008573ffffffffffffffffffffffffffffffffffffffff1673ffffffffffffffffffffffffffffffffffffffff1681526020019081526020016000205401111515611c6357600080fd5b80600560008573ffffffffffffffffffffffffffffffffffffffff1673ffffffffffffffffffffffffffffffffffffffff1681526020019081526020016000206000828254039250508190555080600560008473ffffffffffffffffffffffffffffffffffffffff1673ffffffffffffffffffffffffffffffffffffffff168152602001908152602001600020600082825401925050819055508173ffffffffffffffffffffffffffffffffffffffff168373ffffffffffffffffffffffffffffffffffffffff167fddf252ad1be2c89b69c2b068fc378daa952ba7f163c4a11628f55a4df523b3ef836040518082815260200191505060405180910390a35050505600a165627a7a72305820d82fa03040cc99f7a3824c48225742f65099795cdf3763c92239b34b401d79f50029",
  "schema_version": "0.0.5",
  "updated_at": 1512647092434
}